:100000000C94DF070C9408260C9435260C94622679
:100010000C948F260C9407080C9407080C9407087E
:100020000C9407080C9407080C94F7230C947E2476
:100030000C9407080C9407080C9407080C94070804
:100040000C9407080C9407080C9407080C940708F4
:100050000C9407080C9407080C9407080C94CF26FE
:100060000C9407080C9407080C9407080C940708D4
:100070000C9407080C9407080C9407080C940708C4
:100080000C9407080C9407080C9407080C940708B4
:100090000C944C0D0C9407080C9407080C9407085A
:1000A0000C9407080C9407080C940708084AD73BDF
:1000B0003BCE016E84BCBFFDC12F3D6C74319ABD37
:1000C00056833DDA3D00C77F11BED9E4BB4C3E915B
:1000D0006BAAAABE000000803F3A003A00444D508F
:1000E0003A003A003A003A00515541443A00466914
:1000F000726D77617265204C6F6164204552524F7A
:100100005220006D70755F696E6974206661696C5C
:10011000656421000A496E697469616C697A617469
:10012000696F6E20436F6D706C6574650A0052656F
:100130002D696E697469616C697A696E670A004637
:1001400061696C6564005375636365737300496E20
:10015000697469616C697A696E67204D50552E2EFD
:100160002E0046726565204D656D6F72793A2000EC
:100170002E000A0A4B61756169204C616273206E22
:1001800061763620494D55206669726D77617265DA
:1001900020762E20000000700000000024000000E7
:1001A000020003000000650054FFEF0000FA800029
:1001B0000B12820001030C30C30E8C8CE914D54065
:1001C0000213710F8E3883F8833000F883258EF880
:1001D000833000F883FFFFFFFF0FFEA9D624000441
:1001E000001A8279A10000003CFFFF00000010000F
:1001F0000038836FA2003E03304000000002CAE3D3
:10020000093E8000002000000000000000400000C7
:100210000060000000000C0000000C186E000006DA
:10022000920A16C0DFFFFF0256FD8CD377FFE1C4B0
:1002300096E0C5BEAA00000000FFFF0B2B000016D1
:1002400057000003594000000000001DFA00026C36
:100250001D000000003FFFDFEB003EB3B6000D22A3
:100260007800002F3C00000000001942B500003962
:10027000A20000B365D90E9FC91DCF4C34300000D9
:1002800000500000003BB67AE80064000000C8009F
:100290000000000000100000001000FA9210002280
:1002A0005E000D229F0001000000320000FF4600AA
:1002B0000063D400001000000004D6000004CC004D
:1002C0000004CC000000001072000000400000009C
:1002D000000000000000060002000500070000000A
:1002E00000006400000000000000000005000500A0
:1002F000640020000000000000000000000000403A
:10030000000000030000000032F8980000FF6500C4
:1003100000830F0000FF9BFC0000000000000000B5
:1003200000000000000000000000000000000000CD
:1003300000000000000000000000000000000000BD
:10034000000000100040000000000000060000B2A5
:100350006A000200000001FB830068000000D9FC75
:10036000007CF1FF830000000000650000006403D2
:10037000E800640028000000250000000016A0002E
:10038000000000100000001000002F00000000011D
:10039000F40000100000280000FFFF4581FFFFFA75
:1003A000720000000000000000004400050005BAD3
:1003B000C6004778A200000001000000000000060F
:1003C00000000000140000254D002F706D00000596
:1003D000AE000C02D0000000000000000000000091
:1003E0000000000000001B000000000000000000F2
:1003F0000000000000006400000008000000000091
:1004000000000000000000000000000000000000EC
:1004100000000000000000000000000000000000DC
:1004200000000000000000000000000000000000CC
:1004300000000000000000000000000000000000BC
:1004400000000000000000000000000000000000AC
:100450000000000000001B00000000000000000081
:1004600000000E000E00000AC7000400000000009B
:1004700032FFFFFF9C00000B2B0000000200000079
:100480000100000064FFE500000000000000000023
:10049000000000000000000001000000000001005A
:1004A00000000000000001800000018000000180C9
:1004B00000002426D3000000000000000000060019
:1004C000100096003C00000000000000000000004A
:1004D00000000000000C0A4E68CDCF770950166767
:1004E00059C619CE82000000000000000000000084
:1004F0000000000000000000000000000017D7848A
:1005000000030000000000000000000000C7938FFF
:100510009D1E1B1C190000000000000000000000D0
:1005200000000000000000000000000000020318AE
:1005300085000040000000000300000003000000F0
:10054000000000000040000000000000000000006B
:10055000000000000000000000000000000000009B
:10056000000000000000000000000000000000008B
:10057000000000000000000000677DDF7E72902E0A
:10058000554CF6E688000000000000000000000066
:100590000000000000D8DCB4B8B0D8B9ABF3F8FA6A
:1005A000B3B7BB8E9EAEF132F51BF1B4B8B08097F5
:1005B000F1A9DFDFDFAADFDFDFF2AAC5CDC7A90C13
:1005C000C92C97F1A989264666B28999A92D557D2E
:1005D000B0B08AA896365676F1BAA3B4B280C0B845
:1005E000A89711B28398BAA3F0240844106418B2F3
:1005F000B9B49883F1A329557DBAB5B1A38393F01B
:10060000002850F5B2B6AA839328547CF1B9A3828E
:100610009361BAA2DADEDFDB819AB9AEF560687069
:10062000F1DABAA2DFD9BAA2FAB9A38292DB31BA5F
:10063000A2D9BAA2F8DF85A4D0C1BBAD83C2C5C719
:10064000B8A2DFDFDFBAA0DFDFDFD8D8F1B8AAB306
:100650008DB4980D355DB2B6BAAF8C96198F9FA741
:100660000E161EB49AB8AA872C547CBAA4B08AB6C7
:1006700091325676B28494A4C808CDD8B8B4B0F1FB
:100680009982A82D557D98A80E161EA22C547C92F6
:10069000A4F02C5078F184A898C4CDFCD80DDBA828
:1006A000FC2DF3D9BAA6F8DABAA6DED8BAB2B68665
:1006B00096A6D0F3C841DAA6C8F8D8B0B4B882A8D4
:1006C00092F52C548898F135D9F418D8F1A2D0F8C5
:1006D000F9A884D9C7DFF8F883C5DADF69DF83C1F9
:1006E000D8F40114F1A8824EA884F311D182F5D96F
:1006F00092289788F109F41C1CD884A8F3C0F9D17A
:10070000D99782F129F40DD8F3F9F9D1D982F4C23D
:1007100003D8DEDF1AD8F1A2FAF9A88498D9C7DF86
:10072000F8F8F883C7DADF69DFF883C3D8F4011477
:10073000F198A8822EA884F311D182F5D99250970E
:1007400088F109F41CD884A8F3C0F8F9D1D99782AC
:10075000F149F40DD8F3F9F9D1D982F4C403D8DE04
:10076000DFD8F1AD8898CCA809F9D98292A8F57C98
:10077000F1883ACF944A6E98DB6931DAADF2DEF94E
:10078000D88795A8F221D1DAA5F9F417D9F1AE8E60
:10079000D0C0C3AE82C684C3A88595C8A588F2C060
:1007A000F1F4010EF18E9EA8C63E56F554F1887202
:1007B000F40115F19845856EF58E9E0488F14298F6
:1007C0005A8E9E068869F4011CF1981E1108D0F516
:1007D00004F11E970202983625DBF9D985A5F3C1ED
:1007E000DA85A5F3DFD88595A8F309DAA5FAD882CA
:1007F00092A8F578F1881A849F26889821DAF41D4A
:10080000F3D8879F39D1AFD9DFDFFBF9F40CF3D8E8
:10081000FAD0F8DAF9F9D0DFD9F9D8F40BD8F387A0
:100820009F39D1AFD9DFDFF41DF3D8FAFCA869F9FD
:10083000F9AFD0DADEFAD9F88F9FA8F1CCF398DBC4
:1008400045D9AFDFD0F8D8F18F9FA8CAF38809DA6D
:10085000AF8FCBF8D8F2AD978D0CD9A5DFF9BAA63A
:10086000F3FAF412F2D8950DD1D9BAA6F3FADAA5B3
:10087000F2C1BAA6F3DFD8F1BAB2B68696A6D0CA4C
:10088000F349DAA6CBF8D8B0B4B8D8AD84F2C0DF5B
:10089000F18FCBC3A8B2B68696C8C1CBC3F3B0B4B0
:1008A0008898A821DB718D9D71859521D9ADF2FACB
:1008B000D88597A828D9F408D8F28D29DAF405D973
:1008C000F285A4C2F2D8A88D9401D1D9F411F2D83E
:1008D0008721D8F40AD8F28498A8C801D1D9F41194
:1008E000D8F3A4C8BBAFD0F2DEF8F8F8F8F8F8F8FF
:1008F000F8D8F1B8F6B5B9B08A95A3DE3CA3D9F81B
:10090000D85CA3D9F8D87CA3D9F8D8F8F9D1A5D95F
:10091000DFDAFAD8B18530F7D9DED8F830ADDADED3
:10092000D8F2B48C99A32D557DA083DFDFDFB5917C
:10093000A0F629D9FBD8A0FC29D9FAD8A0D051D942
:10094000F8D8FC51D9F9D879D9FBD8A0D0FC79D9FD
:10095000FAD8A1F9F9F9F9F9A0DADFDFDFD8A1F8BF
:10096000F8F8F8F8ACDEF8ADDE8393AC2C547CF1EB
:10097000A8DFDFDFF69D2CDAA0DFD9FADB2DF8D86F
:10098000A850DAA0D0DED9D0F8F8F8DB55F8D8A80E
:1009900078DAA0D0DFD9D0FAF8F8F8F8DB7DF8D80B
:1009A0009CA88CF530DB38D9D0DEDFA0D0DEDFD8D4
:1009B000A848DB58D9DFD0DEA0DFD0DED8A868DBBE
:1009C00070D9DFDFA0DFDFD8F1A888902C547C98A5
:1009D000A8D05C38D1DAF2AE8CDFF9D8B087A8C1E4
:1009E000C1B188A8C6F9F9DA36D8A8F9DA36D8A894
:1009F000F9DA36D8A8F9DA36D8A8F9DA36D8F78D80
:100A00009DADF818DAF2AEDFD8F7ADFA30D9A4DE32
:100A1000F9D8F2AEDEFAF983A7D9C3C5C7F1889B2E
:100A2000A77AADF7DEDFA4F8849408A797F300AEA9
:100A3000F29819A488C6A39488F632DFF28393DB78
:100A400009D9F2AADFD8D8AEF8F9D1DAF3A4DEA733
:100A5000F1889B7AD8F38494AE19F9DAAAF1DFD839
:100A6000A881C0C3C5C7A39283F628ADDED9F8D844
:100A7000A350ADD9F8D8A378ADD9F8D8F8F9D1A159
:100A8000DADEC3C5C7D8A18194F818F2B089ACC327
:100A9000C5C7F1D8B8B4B09786A8319B069907AB03
:100AA0009728889BF00C201440B0B4B8F0A88A9A1C
:100AB000285078B79BA82951792470594469386423
:100AC0004831F1BBAB88002C547CF0B38BB8A80440
:100AD000285078F1B088B49726A85998BBABB38B4F
:100AE00002264666B0B8F08A9CA82951798B295114
:100AF000798A2470598B2058718A4469388B39401F
:100B0000688A6448318B30496088F1AC002C547C91
:100B1000F08CA804285078F1889726A85998AC8CB6
:100B200002264666F0899CA82951792470594469A7
:100B300038644831A98809205970AB11384069A838
:100B4000193148608CA83C415C207C00F1879819E1
:100B500086A86E767EA999882D557DD8B1B5B9A3A2
:100B6000DFDFDFAED0DFAAD0DEF2ABF8F9D9B08795
:100B7000C4AAF1DFDFBBAFDFDFB9D8B1F1A3978E35
:100B800060DFB084F2C8F8F9D9DED89385F14AB1B4
:100B900083A308B5839A0810B79F10D8F1B0BAAEF6
:100BA000B08AC2B2B68E9EF1FBD9F41DD8F9D90C29
:100BB000F1D8F8F8AD61D9AEFBD8F40CF1D8F8F85B
:100BC000AD19D9AEFBDFD8F416F1D8F8AD8D61D9E7
:100BD000F4F4ACF59C9C8DDF2BBAB6AEFAF8F40BAE
:100BE000D8F1AED0F8AD51DAAEFAF8F1D8B9B1B665
:100BF000A3839C08B9B1839AB5AAC0FD3083B79F7F
:100C000010B58B93F20202D1ABDADED8F1B080BA24
:100C1000ABC0C3B284C1C3D8B1B9F38BA391B60939
:100C2000B4D9ABDEB0879CB9A3DDF1B38B8B8B8BD2
:100C30008BB087A3A3A3A3B28BB69BF2A3A3A3A35A
:100C4000A3A3A3A3A3A3F1B087B59AA3F39BA3A3E4
:100C5000DCBAACDFB9A3A3A3A3A3A3A3A3A3A3A3B9
:100C6000A3A3A3A3A3D8D8D8BBB3B7F1AAF9DAFF3B
:100C7000D9809AAA28B48098A720B79787A86688B1
:100C8000F07951F1902C870CA781976293F07171E4
:100C90006085940129517990A5F1284C6C870C95B9
:100CA000188578A38390284C6C886CD8F3A28200B6
:100CB000F210A8921980A2F2D926D8F188A84DD9AD
:100CC00048D896A83980D93CD89580A839A6869866
:100CD000D92CDA87A72CD8A8899519A980D938D812
:100CE000A88939A980DA3CD8A82EA83990D90CD87F
:100CF000A8953198D90CD8A809D9FFD801DAFFD81E
:100D00009539A9DA26FFD890A80D8999A81080985E
:100D100021DA2ED88999A83180DA2ED8A886963182
:100D200080DA2ED8A8873180DA2ED8A88292F341B3
:100D300080F1D92ED8A882F31980F1D92ED882ACAF
:100D4000F3C0A28022F1A62EA72EA92298A829DA04
:100D5000ACDEFFD8A2F22AF1A92E8292A8F231804D
:100D6000A696F1D900AC8C9C0C30ACDED0DEFFD85E
:100D70008C9CACD010ACDE8092A2F24C82A8F1CA5E
:100D8000F235F19688A6D900D8F1FF080B000202CF
:100D90000201000904000001020200000524001005
:100DA00001052401010104240206052406000107AF
:100DB00005810310004009040100020A0000000739
:100DC00005020240000007058302400000040309F9
:100DD000042203410072006400750069006E006F18
:100DE0000020004C0065006F006E0061007200641E
:100DF000006F001803410072006400750069006E06
:100E0000006F0020004C004C004300120100020063
:100E10000000404123368000010102000112010060
:100E2000020200004041233680000101020001005F
:100E3000C18081C100000000240027002A002D008D
:100E4000300000000000250028002B002E0031009B
:100E5000000000002300260029002C002F000404BD
:100E60000404040304050202020204030202020253
:100E7000060606060606040402020204040802012D
:100E800010408040102040804080080204018040D3
:100E900020100201108010204040000000020008D5
:100EA0000E0000030401000B00000706050401000A
:100EB000080A0B0C0D0905010902A1010901A10095
:100EC00085010509190129031500250195037501FF
:100ED0008102950175058103050109300931093841
:100EE0001581257F750895038106C0C00501090697
:100EF000A1018502050719E029E715002501750103
:100F000095088102950175088103950675081500FD
:100F100025650507190029658100C0090402000143
:100F2000030000000921010100012265000705847A
:100F30000340000100000000000000002A2B2800F0
:100F400000000000000000000000000000000000A1
:100F5000000000002C9EB4A0A1A2A434A6A7A5AEB8
:100F6000362D3738271E1F20212223242526B33370
:100F7000B62EB7B89F8485868788898A8B8C8D8E9C
:100F80008F909192939495969798999A9B9C9D2F68
:100F90003130A3AD350405060708090A0B0C0D0E08
:100FA0000F101112131415161718191A1B1C1DAF48
:100FB000B1B0B5003009350F48203323DD281124A6
:100FC0001FBECFEFDAE0DEBFCDBF11E0A0E0B1E0A1
:100FD000E4EAFAE502C005900D92A23EB107D9F706
:100FE00013E0A2EEB1E001C01D92A437B107E1F712
:100FF0001FE0CEEBDFE004C02297FE010E944C2DE3
:10100000C43BD107C9F70E94BC260C94502D0C9408
:101010000000FB01DC0104C08D910190801921F4D6
:1010200041505040C8F7881B990B089581E0809388
:1010300026020895FC01808118161CF420E030E09F
:101040001DC0882319F024E030E018C081811816F3
:101050001CF421E030E012C0882319F025E030E0D4
:101060000DC0828118161CF422E030E007C08823EE
:1010700019F427E030E002C026E030E0C90108950D
:10108000CF92DF92EF92FF920F931F937C010E9409
:101090001A086C01C70103960E941A088C01C70147
:1010A00006960E941A0833E0000F111F3A95E1F7E7
:1010B00026E0880F991F2A95E1F7082B192B0C2998
:1010C0001D29C8011F910F91FF90EF90DF90CF90E5
:1010D00008952F923F924F925F926F927F928F92DC
:1010E0009F92AF92BF92CF92DF92EF92FF920F93B7
:1010F0001F93DF93CF9300D000D000D0CDB7DEB7E1
:101100009E838D83DB0114966D907D908D909C90D5
:1011100017971C968D919D910D90BC91A02D898360
:101120009A83AB83BC83FB01A080B180C280D38053
:101130002084318442845384C401B30129813A81DB
:101140004B815C810E94FC2B7B018C01C601B501A7
:10115000A20191010E94FC2B9B01AC01C801B701C7
:101160000E94E7299B01AC010E94E829AD81BE8164
:101170006D937D938D939C931397C601B501A40144
:1011800093010E94FC2B7B018C01C201B1012981DA
:101190003A814B815C810E94FC2B9B01AC01C80110
:1011A000B7010E94E8299B01AC010E94E829ED816A
:1011B000FE816483758386839783C601B501A6018A
:1011C00095010E94FC2B7B018C01C401B301A40199
:1011D00093010E94FC2B9B01AC01C801B7010E9446
:1011E000E7297B018C01C201B101A20191010E949A
:1011F000FC2B9B01AC01C801B7010E94E7297B01D0
:101200008C0169817A818B819C819B01AC010E9458
:10121000FC2B9B01AC01C801B7010E94E829AD81FC
:10122000BE8118966D937D938D939C931B97269604
:101230000FB6F894DEBF0FBECDBFCF91DF911F91E7
:101240000F91FF90EF90DF90CF90BF90AF909F9065
:101250008F907F906F905F904F903F902F90089568
:1012600080E090E0A0E0B0E08093E2019093E301A1
:10127000A093E401B093E5018093E6019093E70128
:10128000A093E801B093E9018093EA019093EB0108
:10129000A093EC01B093ED018093EE019093EF01E8
:1012A000A093F001B093F1018093F2019093F301C8
:1012B000A093F401B093F5018093F6019093F701A8
:1012C000A093F801B093F9018093FA019093FB0188
:1012D000A093FC01B093FD018093FE019093FF0168
:1012E000A0930002B093010208952F923F924F9273
:1012F0005F926F927F928F929F92AF92BF92CF92A6
:10130000DF92EF92FF920F931F93DF93CF9300D062
:1013100000D000D0CDB7DEB79E838D836B011A015C
:10132000FB0184809580A680B780C501B401A5012A
:1013300094010E94E82969837A838B839C83F60158
:10134000E080F180028113812085318542855385BB
:101350000E94FC2B2B013C01C801B70120E030E0CA
:1013600040E050EC0E94FC2BF60124853585468533
:1013700057850E94FC2B9B01AC01C301B2010E9466
:10138000E8292B013C01C801B701A80197010E947F
:10139000E829A80197010E94FC2B7B018C0169813F
:1013A0007A818B819C81A50194010E94FC2B9B0179
:1013B000AC01C801B7010E94E82920E030E040E814
:1013C0005FE30E94E7299B01AC01C301B2010E94C7
:1013D0005B2AED81FE816083718382839383F101B7
:1013E0002481358146815781E084F184028513850B
:1013F000CA01B9010E94FC2B5B016C01C801B70155
:10140000A80197010E94FC2B9B01AC01C601B5010C
:101410000E94E8290E94632C9B01AC01F1016081CC
:101420007181828193810E94AE2A0E94862AED8179
:10143000FE816483758386839783F10120813181E6
:1014400042815381E084F18402851385CA01B90188
:101450000E94FC2B5B016C01C801B701A801970138
:101460000E94FC2B9B01AC01C601B5010E94E8293A
:101470000E94632C9B01AC01F1016481758186811E
:1014800097810E94AE2A0E94862AED81FE816087A4
:1014900071878287938726960FB6F894DEBF0FBEBA
:1014A000CDBFCF91DF911F910F91FF90EF90DF9013
:1014B000CF90BF90AF909F908F907F906F905F90F4
:1014C0004F903F902F90089581E00E94E91681E0AF
:1014D0008093240208950F931F93DF93CF9300D03E
:1014E00000D0CDB7DEB786E198E09A8389831C826D
:1014F0001B82CE0101960E948C17892B39F08BE359
:1015000093E063E071E00E944B2138C088E70E94BD
:10151000B11388E70E94D21584E690E00E948516F8
:101520008FE192E00E944B1081E292E00E940B104A
:101530008EE192E00E942A1089E0E3E2F2E0DF010E
:101540001D928A95E9F783E08093230284E090E07E
:1015500090932802809327020E94091F8C01009714
:1015600079F08BE393E06EEE70E00E944B218BE309
:1015700093E0B8014AE050E00E94612280E00FC091
:1015800080E091E00E9440080E945D1E80E791E0AB
:101590000E943E1D84E690E00E94B91B81E00F90FE
:1015A0000F900F900F90CF91DF911F910F910895A1
:1015B0006F927F928F929F92AF92BF92CF92DF9263
:1015C000EF92FF920F931F93DF93CF93CDB7DEB7C8
:1015D000AF970FB6F894DEBF0FBECDBF8091260245
:1015E000882309F499C080912402882309F494C0C7
:1015F0001982CE010496BE01665F7F4FAE01405F47
:101600005F4F2EE032E08E010E5F1F4F7E01089487
:10161000E11CF11C0E9484189C018981882311F42B
:1016200010922602232B09F077C08A819B81887053
:1016300091708850914009F06FC06C897D898E89C6
:101640009F89BC01992777FD9095892F0E94442B93
:1016500020E030E040E858E30E94FC2B7B018C0145
:10166000688D798D8A8D9B8DBC01992777FD90952A
:10167000892F0E94442B20E030E040E858E30E948C
:10168000FC2B5B016C016C8D7D8D8E8D9F8DBC0163
:10169000992777FD9095892F0E94442B20E030E018
:1016A00040E858E30E94FC2B3B014C016889798992
:1016B0008A899B89BC01992777FD9095892F0E9483
:1016C000442B20E030E040E858E30E94FC2B68A364
:1016D00079A38AA39BA3C701D8018CA39DA3AEA322
:1016E000BFA3C501D60188A799A7AAA7BBA7C30115
:1016F000D4018CA79DA7AEA7BFA78E01005E1F4F88
:1017000082E192E0B8010E94690882E092E0B801AB
:1017100042E152E00E947509AF960FB6F894DEBF21
:101720000FBECDBFCF91DF911F910F91FF90EF9032
:10173000DF90CF90BF90AF909F908F907F906F90F1
:101740000895EF92FF920F931F93DF93CF9300D0F2
:10175000CDB7DEB786E160E00E94E32787E161E074
:101760000E94E3278DE061E00E94E3278DE060E0C6
:101770000E947028EE24FF2400E010E087E161E081
:101780000E94702887E160E00E94702887E161E094
:101790000E9470280F5F1F4F0830110551F486E139
:1017A00061E00E94702886E160E00E94702800E0FD
:1017B00010E00894E11CF11C80E1E81687E2F806CD
:1017C000E9F686E161E00E94702886E160E00E940F
:1017D000702880EE92E00E94D50F449845988BE3E4
:1017E00093E060E071EE0E94FD1F8BE393E00E94A6
:1017F0005F208823D1F38BE393E062E771E00E94DE
:101800004B218BE393E062E070E04AE050E00E94FD
:101810004E228BE393E060E771E00E944B218BE363
:1018200093E061E070E04AE050E00E9461228BE3C7
:1018300093E062E671E00E944B21209170033091A9
:101840007103CE0101962115310529F48457934087
:101850009A83898318C0AC01421B530BE091720339
:10186000F091730320E030E008C0808191810296FE
:10187000280F391F0280F381E02D3097B1F7240F34
:10188000351F3A83298369817A818BE393E04AE0AB
:1018900050E00E9461228BE393E06EE471E00E94CD
:1018A0004B218BE393E00E9495208DE061E00E9444
:1018B00070280E946B0A8823F9F08BE393E066E4BA
:1018C00071E00E944B210E94640A8BE393E064E183
:1018D00071E00E944B218BE393E00E9495208DE004
:1018E00060E00E9470280F900F90CF91DF911F91C0
:1018F0000F91FF90EF9008958DE060E00E947028B6
:101900008BE393E06FE371E00E944B210E94381754
:1019100064E670E080E090E00E947B278BE393E038
:101920006EE271E0BCCF382F413210F040E042C08F
:1019300080912C028823E1F791E090932C02209370
:101940002E028FEF809399021092540241504093DF
:1019500055024F5F90932D0280912D02330F832B00
:1019600080932D0280912F02813041F410922F023A
:1019700080912D028093BB0085EC01C085EE8093A1
:10198000BC0080912C028130E1F3809154028417D5
:1019900010F44091540220E030E00AC0FB01E20F55
:1019A000F31FD901AC5CBD4F8C9180832F5F3F4FFB
:1019B0002417A0F3842F08950F931F93582F122FED
:1019C000413210F081E04AC080912C028823E1F777
:1019D00082E080932C0200932E028FEF8093990275
:1019E0001092540240935502A4E3B2E0FB0102C0FE
:1019F00081918D938E2F861B8417D0F310922D0228
:101A000080912D02550F852B80932D0280912F02FE
:101A1000813041F410922F0280912D028093BB00FF
:101A200085EC01C085EE8093BC00112321F08091EC
:101A30002C028230E1F3809199028F3F11F480E013
:101A40000DC080919902803211F482E007C080912C
:101A50009902803311F084E001C083E01F910F915F
:101A60000895482F613210F081E0089580912C0292
:101A7000843011F082E0089560937702A6E5B2E029
:101A8000842F9C01F90102C081918D938E2F841BBC
:101A90008617D0F380E008951F920F920FB60F9231
:101AA00011242F933F934F935F936F937F938F9363
:101AB0009F93AF93BF93EF93FF938091B90090E012
:101AC000887F90708036910509F4F2C081369105C7
:101AD000CCF58832910509F47BC089329105B4F4C4
:101AE0008031910509F46FC0813191053CF4009774
:101AF00009F447C1089709F04FC165C088319105C5
:101B000009F466C0809709F047C182C0803491050E
:101B100009F4A4C08134910544F48033910509F49B
:101B200082C0C89709F038C189C08035910509F491
:101B300089C08835910509F496C08834910509F06B
:101B40002BC1AEC08839910509F413C189399105BB
:101B5000ECF48837910509F4ABC0893791054CF452
:101B60008836910509F4A4C08037910509F014C1A5
:101B70009FC08838910509F4FCC08039910509F4AB
:101B80009DC08038910509F007C198C0803B910540
:101B900009F4C6C0813B91054CF4803A910509F4E3
:101BA0009FC0883A910509F0F7C0BAC0803C910502
:101BB00009F4E3C0883C910509F4DFC0883B910536
:101BC00009F0EAC0C2C080912D028093BB00CFC053
:101BD0009091540280915502981768F490915402A4
:101BE000E92FF0E0EC5CFD4F80818093BB009F5FAC
:101BF00090935402BCC080912E02882309F44BC0FC
:101C000085ED8093BC008091BC0084FDFCCFC2C0F8
:101C100080E28093990285ED8093BC008091BC00A6
:101C200084FDFCCFB7C080E38093990285ED80935B
:101C3000BC008091BC0084FDFCCFACC088E38093E5
:101C400099029BC0809154029091BB00E82FF0E074
:101C5000EC5CFD4F90838F5F80935402909154020F
:101C60008091550282C0809154029091BB00E82F70
:101C7000F0E0EC5CFD4F90838F5F80935402809185
:101C80002E02882341F085ED8093BC008091BC003A
:101C900084FDFCCF7FC081E080932F0284EA6EC078
:101CA00085ED8093BC008091BC0084FDFCCF72C0A8
:101CB00083E080932C021092980259C08091980280
:101CC000803208F056C0809198029091BB00E82FB6
:101CD000F0E0E858FD4F90838F5F8093980247C0F3
:101CE00080919802803230F4E0919802F0E0E85858
:101CF000FD4F108285ED8093BC008091BC0084FD77
:101D0000FCCF10922C0260919802E0913202F09187
:101D1000330288E792E070E00995109298022DC096
:101D200084E080932C021092760210927702E09168
:101D30003002F0913102099580917702882329F4CD
:101D400081E0809377021092560290917602E92FFB
:101D5000F0E0EA5AFD4F80818093BB009F5F909333
:101D600076029091760280917702981710F485ECB4
:101D700001C085E88093BC000FC085EC8093BC0057
:101D800009C01092990285ED8093BC008091BC003F
:101D900084FDFCCF10922C02FF91EF91BF91AF9187
:101DA0009F918F917F916F915F914F913F912F9173
:101DB0000F900FBE0F901F90189510922C0281E08B
:101DC00080932E0210922F0282E061E00E94702820
:101DD00083E061E00E947028E9EBF0E080818E7F73
:101DE000808380818D7F808388E48093B80085E440
:101DF0008093BC00089581E08093DF026093BC0271
:101E00001092DD021092DE0208952091BB0230E0B4
:101E10008091BA02281B3109C90108954091BA0284
:101E20008091BB02481718F02FEF3FEF0AC0E42F54
:101E3000F0E0E656FD4F8081282F30E04F5F409361
:101E4000BA02C9010895E091BA028091BB02E81775
:101E500018F0EFEFFFEF06C0F0E0E656FD4F80818F
:101E6000E82FF0E0CF01089508951092E302109258
:101E7000E20288EE93E0A0E0B0E08093E402909369
:101E8000E502A093E602B093E7028CE391E0909321
:101E9000E1028093E0020895CF92DF92EF92FF92E9
:101EA0000F931F93CF93DF937C016B018A01809185
:101EB000DF028823A1F0C0E0D0E00DC0D701ED9192
:101EC000FC91D601AC0FBD1F0190F081E02DC70140
:101ED0006C9109952196C017D10780F304C0CB01FE
:101EE000642F0E94310DC801DF91CF911F910F9196
:101EF000FF90EF90DF90CF900895DF93CF930F92F4
:101F0000CDB7DEB7FC0169838091DF028823C9F079
:101F10008091DE02803238F081E090E0938382830A
:101F200020E030E015C08091DD02E82FF0E0E354BE
:101F3000FD4F998190838F5F8093DD028093DE0255
:101F400005C0CE01019661E00E94310D21E030E034
:101F5000C9010F90CF91DF9108950F93062F8091C3
:101F6000BC026DEB72E04091DE0221E00E94DC0CCD
:101F70001092DD021092DE021092DF020F9108959E
:101F800061E00E94AD0F0895413208F040E2862FD3
:101F90006AE972E00E94930C1092BA028093BB022D
:101FA000089521E00E94C40F08951092BA02109281
:101FB000BB021092DD021092DE020E94DD0E089537
:101FC0000F931F938C010E941727F8016083718380
:101FD000828393831F910F9108950F931F93009114
:101FE0002C0110912D010E94471F882319F42FEF17
:101FF0003FEF02C020E030E0C9011F910F9108952A
:102000000E94141F882319F42FEF3FEF02C020E035
:1020100030E0C9010895FC0180910D01813051F03B
:10202000813028F0823059F0833079F40BC08AEF88
:1020300090E002C084EF91E09183808308C088EE35
:1020400093E0FACF80ED97E0F7CF1182108280E025
:1020500090E00895FC0180910E01813059F08130AB
:1020600038F0823049F0833049F02FEF3FEF11C054
:1020700082E005C084E003C088E001C080E1808385
:1020800080911701882319F08081880F808320E0D8
:1020900030E0C9010895FC0180912601882319F0E0
:1020A0002FEF3FEF08C080911201909113019183AF
:1020B000808320E030E0C9010895DF93CF930F9231
:1020C000CDB7DEB7982F80912601882321F0992380
:1020D00079F082E00BC080910F01882319F19923D8
:1020E00039F0809115018823D1F481E0898301C002
:1020F0001982E0910B01F0910C01A0910901B091BE
:102100000A01808151966C9141E09E012F5F3F4F03
:102110000E940010892B31F489818093150120E001
:1021200030E002C02FEF3FEFC9010F90CF91DF9158
:102130000895EF92FF920F931F93DF93CF9300D0F8
:10214000CDB7DEB7FC018B017A0141155105B1F124
:1021500080910F01882391F1A0910B01B0910C01A6
:102160009B012E0F311D18968D919C911997821706
:10217000930720F1F983EA83E0910901F0910A01C4
:102180008C91638D42E09E012F5F3F4F0E940010B3
:10219000892BA1F4E0910B01F0910C01A0910901B0
:1021A000B0910A01808158966C91402F97010E944E
:1021B0000010892B19F420E030E002C02FEF3FEF30
:1021C000C9010F900F90CF91DF911F910F91FF9058
:1021D000EF9008951F93DF93CF930F92CDB7DEB7A3
:1021E000182F80912501811761F1112319F080E3E7
:1021F000898301C0198280911601882319F0898191
:102200008260898380912401882319F08981806804
:102210008983E0910B01F0910C01A0910901B0912B
:102220000A01808157966C9141E09E012F5F3F4FDC
:102230000E940010892B19F02FEF3FEF04C010937C
:10224000250120E030E0C9010F90CF91DF911F916F
:102250000895DF93CF930F92CDB7DEB79C018091A5
:102260000F018823C9F12C3B310510F081E015C026
:102270002236310510F082E010C02A32310510F00C
:1022800083E00BC02431310510F084E006C02A3011
:10229000310510F085E001C086E08983909110013E
:1022A00089819817B1F0E0910B01F0910C01A09198
:1022B0000901B0910A01808112966C9141E09E0162
:1022C0002F5F3F4F0E940010892B31F4898180934A
:1022D000100120E030E002C02FEF3FEFC9010F9066
:1022E000CF91DF910895DF93CF930F92CDB7DEB7F3
:1022F000982F80910F018823C1F1943061F09530BF
:1023000018F4923091F505C0983039F0903169F5A4
:1023100006C0198206C088E003C080E101C088E1E0
:102320008983898186958695869590910E01981767
:10233000C9F0E0910B01F0910C01A0910901B0915D
:102340000A01808117966C9141E09E012F5F3F4FFB
:102350000E940010892B49F489818695869586957F
:1023600080930E0120E030E002C02FEF3FEFC90163
:102370000F90CF91DF910895DF93CF930F92CDB758
:10238000DEB79C0180910F01882309F440C081E0F1
:10239000243F380791F081E0253F380720F42A3F99
:1023A0003105A9F508C083E0283E380741F0205DDB
:1023B000374069F506C0198206C088E003C080E195
:1023C00001C088E18983898186958695869590915B
:1023D0000D019817C9F0E0910B01F0910C01A0914B
:1023E0000901B0910A01808116966C9141E09E012D
:1023F0002F5F3F4F0E940010892B49F489818695F9
:102400008695869580930D0120E030E002C02FEF85
:102410003FEFC9010F90CF91DF910895EF92FF92A6
:102420000F931F93DF93CF9300D0CDB7DEB7FC019E
:102430008B017A0141155105B1F180910F0188237B
:1024400091F1A0910B01B0910C019B012E0F311D58
:1024500018968D919C9119978217930720F1F98313
:10246000EA83E0910901F0910A018C91638D42E0C9
:102470009E012F5F3F4F0E940010892BA1F4E09135
:102480000B01F0910C01A0910901B0910A0180812A
:1024900058966C91402F97010E94ED0F892B19F4EB
:1024A00020E030E002C02FEF3FEFC9010F900F9006
:1024B000CF91DF911F910F91FF90EF9008952F9290
:1024C0003F924F925F926F927F928F929F92AF92C4
:1024D000BF92CF92DF92EF92FF920F931F93DF9301
:1024E000CF93CDB7DEB7A2970FB6F894DEBF0FBE7D
:1024F000CDBF4C015B011A0129018091270188237E
:1025000019F02DEF3FEF6EC06115710519F42CEF36
:102510003FEF68C0EE24FF2443E1C42ED12CCC0E43
:10252000DD1E33E0632E712C6C0E7D1E34C08401E1
:102530000E191F090131110510F000E110E095019D
:102540002E0D3F1D80E090E009C0F901E80FF91F52
:10255000E491D601A80FB91FEC930196801791075B
:10256000A0F3C701B801A6010E949910892BC1F5FB
:10257000C701B801A3010E940E12892B89F5C6017B
:10258000B301A8010E940908009719F02EEF3FEF50
:1025900029C0E00EF11EE814F90448F239822A82BB
:1025A000E0910B01F0910C01A0910901B0910A0199
:1025B00080815D966C9142E09E012F5F3F4F0E94AB
:1025C0000010892B19F02BEF3FEF0CC081E08093B6
:1025D0002701509229014092280120E030E002C0FA
:1025E0002FEF3FEFC901A2960FB6F894DEBF0FBEE2
:1025F000CDBFCF91DF911F910F91FF90EF90DF90B2
:10260000CF90BF90AF909F908F907F906F905F9092
:102610004F903F902F900895FF920F931F93DF9359
:10262000CF930F92CDB7DEB7F82E809116018F159C
:1026300009F48AC0E0910B01F0910C01A09109010D
:10264000B0910A018E010F5F1F4FFF2069F1808159
:1026500014966C9141E098010E94ED0F892B09F0CE
:1026600076C089818F7D8983E0910B01F0910C0107
:10267000A0910901B0910A01808114966C9141E00A
:1026800098010E940010892B09F061C063E070E09E
:1026900080E090E00E947B2782E089838091240182
:1026A0008823B1F182E831C0808114966C9141E0B9
:1026B00098010E94ED0F892B09F049C080910F010C
:1026C000998180FF02C0906201C09F7D9983E09153
:1026D0000B01F0910C01A0910901B0910A018081D8
:1026E00014966C9141E09E012F5F3F4F0E940010B5
:1026F000892B69F563E070E080E090E00E947B2721
:1027000080912401882319F080E8898301C019820F
:1027100080912501882319F0898180638983E09164
:102720000B01F0910C01A0910901B0910A01808187
:1027300057966C9141E09E012F5F3F4F0E94001021
:10274000892B29F4F092160120E030E002C02FEF2F
:102750003FEFC9010F90CF91DF911F910F91FF9033
:102760000895FF920F931F93DF93CF930F92CDB7EE
:10277000DEB7F82E082F10E0C80180779070892B03
:1027800011F081E005C0FF2011F0198202C080E441
:102790008983E0910B01F0910C01A0910901B091A6
:1027A0000A01808155966C9141E09E012F5F3F4F59
:1027B0000E940010892B59F589818F7B809311012C
:1027C000198206FD02C084E0898305FD03C089816A
:1027D0008260898304FD03C089818160898303FD50
:1027E00003C0898188638983E0910B01F0910C011A
:1027F000A0910901B0910A01808156966C9141E047
:102800009E012F5F3F4F0E940010892B29F01092EC
:102810000F012FEF3FEF14C0FF2031F088E0F816D2
:1028200019F080E00E94EA10F0920F011092180156
:1028300062E370E080E090E00E947B2720E030E0DF
:10284000C9010F90CF91DF911F910F91FF900895D3
:102850000F931F93DF93CF930F92CDB7DEB7809185
:102860000F01882309F4FFC01982E0910B01F09158
:102870000C01A0910901B0910A01808151966C91DF
:1028800041E08E010F5F1F4F98010E940010892BBD
:1028900009F0E9C0E0910B01F0910C01A091090150
:1028A000B0910A01808115966C9141E098010E94D7
:1028B0000010892B09F0D7C0E0910B01F0910C01B9
:1028C000A0910901B0910A01808114966C9141E0B8
:1028D00098010E940010892B09F0C5C08091260143
:1028E000E0910B01F0910C01A0910901B0910A0156
:1028F000882309F45AC08CE08983808114966C91F6
:1029000041E098010E940010892B09F0ACC062E3FD
:1029100070E080E090E00E947B2780EC89838091CA
:102920000F0180FF02C080EE8983E0910B01F091DE
:102930000C01A0910901B0910A01808114966C915B
:1029400041E09E012F5F3F4F0E940010892B09F04C
:102950008AC080911501882319F082E0898301C023
:102960001982E0910B01F0910C01A0910901B09145
:102970000A01808151966C9141E08E010F5F1F4FDB
:1029800098010E940010892B09F06DC01982E09116
:102990000B01F0910C01A0910901B0910A01808115
:1029A00015966C9141E098015AC084E0898380813A
:1029B00014966C9141E098010E940010892B09F057
:1029C00052C080911601882321F480910F0180FD6F
:1029D00002C080E401C080E68983E0910B01F091A0
:1029E0000C01A0910901B0910A01808114966C91AB
:1029F00041E09E012F5F3F4F0E940010892B99F507
:102A000062E370E080E090E00E947B2780911501F6
:102A1000882319F081E0898301C01982E0910B01BC
:102A2000F0910C01A0910901B0910A0180815196A9
:102A30006C9141E09E012F5F3F4F0E940010892B57
:102A400091F4E0910B01F0910C01A0910901B0917A
:102A50000A01808115966C9141E024E131E00E94E9
:102A60000010892B19F02FEF3FEF02C020E030E07B
:102A7000C9010F90CF91DF911F910F9108958F920F
:102A80009F92AF92BF92CF92DF92EF92FF920F93FD
:102A90001F93DF93CF9300D0CDB7DEB77C014B01FE
:102AA0005A0180912601882319F42FEF3FEF6AC065
:102AB00080910F01882319F42CEF3FEF63C0E09160
:102AC0000B01F0910C01A0910901B0910A018081E4
:102AD0001C966C9142E06E010894C11CD11C9601B9
:102AE0000E94ED0F892B09F04BC0998180E02A816B
:102AF000022F10E0082B192B0E151F0528F4F501E5
:102B000010822BEF3FEF3EC0A0910B01B0910C0162
:102B100011968D919C9112979695879580179107A4
:102B2000A0F4E0910901F0910A018C91638941E0E0
:102B300096010E94ED0F892B19F5898184FF05C04C
:102B40000E9428142DEF3FEF1DC0E0910B01F09182
:102B50000C01A0910901B0910A0180811D966C9130
:102B60004E2D94010E94ED0F892B51F4C801B7013D
:102B70000E94E62C6150F501608320E030E002C045
:102B80002EEF3FEFC9010F900F90CF91DF911F9172
:102B90000F91FF90EF90DF90CF90BF90AF909F90FC
:102BA0008F9008950F931F93CF93DF93982F809169
:102BB0002601882319F0C0E0D0E02AC080910F01DF
:102BC000882321F1192F1E7F009114018123809306
:102BD0001401811719F4C0E0D0E002C0CFEFDFEF9D
:102BE000112321F480911801882331F081E00E94A3
:102BF0005D10112369F004C080E00E945D1008C0E0
:102C00000E942814892B21F000931401CFEFDFEFED
:102C1000CE01DF91CF911F910F9108951F93DF9304
:102C2000CF9300D0CDB7DEB7182F893208F064C03B
:102C30008823E9F480E00E94EA10198287E08A8301
:102C4000E0910B01F0910C01A0910901B0910A01F2
:102C5000808155966C9142E09E012F5F3F4F0E940C
:102C60000010892B09F048C01092180142C081E081
:102C70000E94EA1080E28983113011F41A8204C0A4
:102C8000163028F481E08A8385E090E00BC015318E
:102C900028F482E08A838AE090E004C083E08A839B
:102CA00084E190E00E9429118A818295880F880F23
:102CB000807C87608A83E0910B01F0910C01A091E8
:102CC0000901B0910A01808155966C9142E09E0104
:102CD0002F5F3F4F0E940010892B71F488E0809392
:102CE0000F011092110181E08093180180E00E9491
:102CF000D21520E030E002C02FEF3FEFC9010F9066
:102D00000F90CF91DF911F9108950F931F93DF9341
:102D1000CF930F92CDB7DEB78C0180910F0188233E
:102D200009F44EC080912601882309F049C08091A2
:102D30001801882359F0C8010197889720F4802F43
:102D40000E940E163AC080E00E940E160430110553
:102D500018F464E070E007C0B80183E0093E18078A
:102D600010F068EE73E088EE93E00E94E62C61506C
:102D70006983E0910B01F0910C01A0910901B091E0
:102D80000A01808111966C9141E09E012F5F3F4FB7
:102D90000E940010892BA1F4698170E06F5F7F4F62
:102DA00088EE93E00E94FA2CCB017093130160939C
:102DB0001201969587950E94291120E030E002C00B
:102DC0002FEF3FEFC9010F90CF91DF911F910F912E
:102DD0000895DF93CF930F92CDB7DEB7982F8091F0
:102DE00026018917F1F1992331F180912701882378
:102DF00019F42FEF3FEF37C080E00E945D1080E0B4
:102E00000E940C1380912801909129010E9485163F
:102E10001982E0910B01F0910C01808163E241E0A5
:102E20009E012F5F3F4F0E94001081E0809326019A
:102E30000E945D1014C080E00E945D10809114011A
:102E40008983E0910B01F0910C01808163E241E004
:102E50009E012F5F3F4F0E940010109226010E949A
:102E6000281420E030E0C9010F90CF91DF91089540
:102E7000EF92FF920F931F93DF93CF9300D000D078
:102E800000D0CDB7DEB780E8898300E010E07E0196
:102E90000894E11CF11CE0910B01F0910C01A09150
:102EA0000901B0910A01808155966C9141E097012A
:102EB0000E940010892BC1F464E670E080E090E08D
:102EC0000E947B271982E0910B01F0910C01A091E7
:102ED0000901B0910A01808155966C9141E09701FA
:102EE0000E940010892B59F06AE070E080E090E0C9
:102EF0000E947B270F5F1F4F0436110561F626964F
:102F00000FB6F894DEBF0FBECDBFCF91DF911F91FA
:102F10000F91FF90EF900895EF92FF920F931F9300
:102F2000DF93CF9300D000D000D0CDB7DEB77C01C7
:102F300080E88983E0910B01F0910C01A0910901D7
:102F4000B0910A01808155966C9141E08E010F5F2E
:102F50001F4F98010E940010892B09F0C5C064E63C
:102F600070E080E090E00E947B271982E0910B01E5
:102F7000F0910C01A0910901B0910A018081559650
:102F80006C9141E098010E940010892B09F0ACC0BF
:102F9000E0910B01F0910C01A0910901B0910A019F
:102FA000808159966C9146E098010E94ED0F892B23
:102FB00009F09AC08E8190E081709070880F991FFF
:102FC000880F991F2C8130E021703070220F331F41
:102FD000982F922B8A818170982B49F0913019F4A7
:102FE0009093170122C0923009F07EC01CC0E0917E
:102FF0000B01F0910C01A0910901B0910A018081AF
:1030000013966C9141E098010E94ED0F892B09F015
:103010006BC089818F7009F467C0843021F481E02E
:103020008093170102C0109217012FEF20930F0118
:1030300020930D0120930E01209310018FEF9FEF3D
:103040009093130180931201209314012093160191
:1030500081E0809311018093240110922501109248
:103060001901109218018AE0EAE1F1E0DF011D92F6
:103070008A95E9F7109226011092270110922901F2
:103080001092280180ED97E00E94BC11892B61F518
:1030900082E00E947311892B39F58AE290E00E9448
:1030A0002911892B09F582E390E00E948516892B6E
:1030B000D9F480E00E94D215892BB1F4E114F10417
:1030C00041F0F70160817181828143E050E00E940C
:1030D000C72580E00E940C13892B31F480E00E9408
:1030E000B11320E030E002C02FEF3FEFC901269678
:1030F0000FB6F894DEBF0FBECDBFCF91DF911F9109
:103100000F91FF90EF9008952F923F924F925F9210
:103110006F927F928F929F92AF92BF92CF92DF92E7
:10312000EF92FF920F931F93DF93CF93CDB7DEB74C
:10313000AC970FB6F894DEBF0FBECDBF9EA38DA394
:1031400078A76FA32A013AA729A71CA70BA7A70155
:10315000D8011D921C928091F60290E0BE016F5F33
:103160007F4F0E943F159AA389A3892B09F0D5C1EF
:10317000E091F202F091F302FCA3EBA3CF01847182
:103180009070892B11F440E017C1A980BB24CC2496
:10319000DD24DA2CCC24BB24AA248A8190E0A0E090
:1031A000B0E0DC0199278827A82AB92ACA2ADB2A95
:1031B0008C8190E0A0E0B0E0A82AB92ACA2ADB2AD4
:1031C0008B8190E0A0E0B0E0BA2FA92F982F88273C
:1031D000A82AB92ACA2ADB2AD201AD92BD92CD9281
:1031E000DC9213972D8130E040E050E0522F4427CD
:1031F000332722278E8190E0A0E0B0E0DC01992700
:103200008827282B392B4A2B5B2B888590E0A0E060
:10321000B0E0282B392B4A2B5B2B8F8190E0A0E06C
:10322000B0E0BA2FA92F982F8827282B392B4A2BAB
:103230005B2BF2012483358346835783298530E055
:1032400040E050E0522F4427332722278A8590E020
:10325000A0E0B0E0DC0199278827282B392B4A2BE6
:103260005B2B8C8590E0A0E0B0E0282B392B4A2B1B
:103270005B2B8B8590E0A0E0B0E0BA2FA92F982FB0
:103280008827282B392B4A2B5B2BD20118962D939C
:103290003D934D935C931B972D8530E040E050E0CB
:1032A000522F4427332722278E8590E0A0E0B0E0FC
:1032B000DC0199278827282B392B4A2B5B2B8889FF
:1032C00090E0A0E0B0E0282B392B4A2B5B2B8F85B8
:1032D00090E0A0E0B0E0BA2FA92F982F8827282BE4
:1032E000392B4A2B5B2B2487358746875787560116
:1032F000DD24B7FCD094CD2C6480758086809780C7
:103300003401992477FC9094892C20843184428460
:1033100053841201552437FC5094452C9A015527AB
:1033200037FD5095452FCA01B9010E94C72C7B017A
:103330008C01C601B501A60195010E94C72CE60EBD
:10334000F71E081F191FC401B301A40193010E94B5
:10335000C72CE60EF71E081F191FC201B101A201FA
:1033600091010E94C72CE60EF71E081F191F80E06E
:1033700090E0A0E0B1EFE80EF91E0A1F1B1F91E0DC
:10338000E91690E0F90690E0090792E0190758F075
:103390000E942814ABA5BCA51D921C92ECEFFFEF78
:1033A000FAA3E9A3BAC0ABA5BCA58D919C911197D6
:1033B00091608D939C9340E1BBA1B6FF39C0A42FCF
:1033C000B0E0FE01EA0FFB1F228130E0FE01EA0FB0
:1033D000FB1F918180E0282B392BEFA1F8A53183C9
:1033E0002083FE01EA0FFB1F338120E0FE01EA0F7C
:1033F000FB1F848190E0282B392BEFA1F8A53383A4
:103400002283FE01EA0FFB1F358120E0868190E0D8
:10341000282B392BAFA1B8A515963C932E93149762
:103420004A5FEBA5FCA580819181886091838083B0
:103430008BA19CA180789170892BC9F1A42FB0E059
:10344000FE01EA0FFB1F228130E0FE01EA0FFB1FA5
:10345000918180E0282B392BEDA1FEA131832083BF
:10346000FE01EA0FFB1F338120E0FE01EA0FFB1F84
:10347000848190E0282B392BEDA1FEA13383228398
:10348000FE01EA0FFB1F358120E0868190E0282BAA
:10349000392BADA1BEA115963C932E9314974A5F8C
:1034A000EBA5FCA5808191818067918380838BA1AE
:1034B0009CA183709070892B61F18E010F5F1F4F6B
:1034C000040F111DD8011396FC90139711968C913F
:1034D00080FF0FC0E091EC02F091ED02309749F0CF
:1034E0008F2D8F736F2D67706F5F8695869586958C
:1034F0000995F801818183FF0CC0E091EE02F09103
:10350000EF02309731F08F2D8295869586958370E6
:10351000099589A59AA50E94E00F89A19AA1AC9668
:103520000FB6F894DEBF0FBECDBFCF91DF911F91D4
:103530000F91FF90EF90DF90CF90BF90AF909F9052
:103540008F907F906F905F904F903F902F90089555
:10355000DF93CF93CDB7DEB729970FB6F894DEBFD0
:103560000FBECDBF9E012F5F3F4F882349F0D90189
:10357000E0EAF1E089E001900D928150E1F708C0A6
:10358000D901E7E9F1E089E001900D928150E1F77E
:1035900088EB94E069E070E0AE014F5F5F4F0E94FE
:1035A000991029960FB6F894DEBF0FBECDBFCF910C
:1035B000DF910895DF93CF9300D0CDB7DEB765E0FC
:1035C00070E00E94E62C79836A8388E591E062E0EE
:1035D00070E0AE014F5F5F4F0E9499100F900F9007
:1035E000CF91DF910895DF93CF9300D0CDB7DEB7B1
:1035F00065E070E00E94E62C79836A838AE591E0B9
:1036000062E070E0AE014F5F5F4F0E9499100F9033
:103610000F90CF91DF910895EF92FF920F931F9338
:10362000DF93CF9300D000D0CDB7DEB77A0100E0B2
:1036300010E028EE33E040E050E00E942F2DC8015A
:10364000B7010E94C72C292F3327442755272983E8
:103650009C01552737FD5095452F2A83272F382F5A
:10366000492F552747FD5A952B836C838CE591E0B4
:1036700064E070E0AE014F5F5F4F0E9499100F90C1
:103680000F900F900F90CF91DF911F910F91FF90AE
:10369000EF900895DF93CF9300D0CDB7DEB765E00C
:1036A00070E00E94E62C79836A838AED91E062E003
:1036B00070E0AE014F5F5F4F0E9499100F900F9026
:1036C000CF91DF910895DF93CF9300D0CDB7DEB7D0
:1036D00065E070E00E94E62C79836A838EED91E0CC
:1036E00062E070E0AE014F5F5F4F0E9499100F9053
:1036F0000F90CF91DF910895DF93CF930F92CDB7C5
:10370000DEB7882311F481E003C0853008F084E03F
:10371000815089838FE491E061E070E0AE014F5FFA
:103720005F4F0E9499100F90CF91DF910895DF9322
:10373000CF930F92CDB7DEB71982282F80FF02C03A
:1037400080E3898321FF03C089818C60898322FF04
:1037500003C089818360898388E491E061E070E03F
:10376000AE014F5F5F4F0E9499100F90CF91DF9194
:1037700008950F931F93DF93CF93CDB7DEB72897AC
:103780000FB6F894DEBF0FBECDBF8C01893C91050A
:1037900028F588EC90E0B8010E94E62C615070405A
:1037A00079836A8386E192E062E070E0AE014F5F68
:1037B0005F4F0E949910892B89F481EC9AE06CE0AC
:1037C00070E049EA51E00E949910892B39F4109376
:1037D000F5020093F40220E030E002C02FEF3FEF4B
:1037E000C90128960FB6F894DEBF0FBECDBFCF91AA
:1037F000DF911F910F910895DF93CF9300D000D0F8
:10380000CDB7DEB7882349F080E2898388E28A83D6
:1038100080E38B8388E38C8308C083EA93EAA3EA7E
:10382000B3EA89839A83AB83BC838EE99AE064E030
:1038300070E0AE014F5F5F4F0E9499100E94281404
:103840000F900F900F900F90CF91DF910895DF931D
:10385000CF9300D000D0CDB7DEB7882349F080ECFD
:10386000898382EC8A8384EC8B8386EC8C8308C00A
:103870008BE89BE8ABE8BBE889839A83AB83BC8386
:1038800088E99AE064E070E0AE014F5F5F4F0E940C
:1038900099100E9428140F900F900F900F90CF91C5
:1038A000DF910895AF92BF92CF92DF92EF92FF9295
:1038B0000F931F93DF93CF9300D000D00F92CDB71B
:1038C000DEB7A82EBB24C50187709070892B09F440
:1038D000BFC086E06134780708F0BAC080E090E0AD
:1038E0000E94422B20E030E048E453E40E94AE2ADC
:1038F0007B018C01CE0101960E942A1089818430BF
:10390000F1F0853020F4823009F0A2C006C0883082
:1039100041F1803109F09CC036C0C801B70120E0F8
:1039200030E040E856E40E94FC2B0E94162B6B010D
:10393000C801B70120E030E040E456E435C0C801DA
:10394000B70120E030E040E056E40E94FC2B0E94EA
:10395000162B6B01C801B70120E030E040EC55E4C4
:1039600023C0C801B70120E030E040E855E40E94E0
:10397000FC2B0E94162B6B01C801B70120E030E040
:1039800040E455E411C0C801B70120E030E040E058
:1039900055E40E94FC2B0E94162B6B01C801B70155
:1039A00020E030E040EC54E40E94FC2B0E94162BF7
:1039B000862FDA82CB827C838D83A0FE17C08E0196
:1039C0000E5F1F4F84ED91E062E070E0A8010E945D
:1039D0009910892BE9F50E5F1F4F84E291E062E0B8
:1039E00070E0A8010E949910892B91F5A1FE17C0E3
:1039F0008E010E5F1F4F88ED91E062E070E0A8013C
:103A00000E949910892B21F50E5F1F4F88E291E0EB
:103A100062E070E0A8010E949910892BC9F4A2FE0F
:103A20001AC08E010E5F1F4F8CED91E062E070E0D6
:103A3000A8010E949910892B59F40E5F1F4F8CE248
:103A400091E062E070E0A8010E949910892B19F0C2
:103A50002FEF3FEF02C020E030E0C9010F900F9040
:103A60000F900F900F90CF91DF911F910F91FF90CA
:103A7000EF90DF90CF90BF90AF900895AF92BF923C
:103A8000CF92DF92EF92FF920F931F93DF93CF932A
:103A9000CDB7DEB72A970FB6F894DEBF0FBECDBF05
:103AA0008C0182E089838AEC8A8383EE8B8389E0B0
:103AB0008C8388E690E064E070E0AE014F5F5F4F7A
:103AC0000E94991083EA8983B0E4AB2EB12CA02226
:103AD000B12206FF06C080EC8A8388EC8B8382ECDF
:103AE00002C08A838B838C83A0E8EA2EA1E0FA2EA1
:103AF000E022F122E114F10431F084EC8D838CECAE
:103B00008E8386EC03C083EA8D838E838F8383EA62
:103B1000888789878A8787EA9AE06AE070E0AE0141
:103B20004F5F5F4F0E949910F3E0CF2ED12CC0223F
:103B3000D122C114D10411F080E201C088ED898343
:103B400086EB9AE061E070E0AE014F5F5F4F0E944C
:103B5000991005FF02C081E001C080E00E94A81A10
:103B6000E114F104D9F010FF08C082EB89838BE8DF
:103B70008A8386EB8B838BE907C080EB898380E89F
:103B80008A8384EB8B8380E98C8382EA9AE064E009
:103B900070E0AE014F5F5F4F0E949910AE014F5F22
:103BA0005F4F00FF2CC088EF898380EB98E061E0D5
:103BB00070E00E94991087E06AEF70E00E94521C4A
:103BC00087E00E94971B81E00E947C1B84E690E0C6
:103BD0000E94631B84EF91E00E944A1B69E073EE30
:103BE0008AEC92E048EC50E00E940C1B88E290E0E6
:103BF0000E94F31A8AE090E00E94DA1A08C088ED69
:103C0000898380EB98E061E070E00E94991001FFE9
:103C100002C089ED01C088ED89838DE397E061E002
:103C200070E0AE014F5F5F4F0E94991002FF02C02B
:103C300081E001C080E00E94271C04FF02C081E0F7
:103C400001C080E00E94FC1BC80188609093F302D1
:103C50008093F2020E9428141092F602AB2819F009
:103C600086E08093F602EF2829F08091F6028A5FC1
:103C70008093F60204711070012B29F08091F602F6
:103C8000805F8093F602CD2829F08091F6028C5F48
:103C90008093F60280E090E02A960FB6F894DEBF9B
:103CA0000FBECDBFCF91DF911F910F91FF90EF908D
:103CB000DF90CF90BF90AF900895EF92FF920F9357
:103CC0001F93DF93CF9300D000D000D0CDB7DEB7E5
:103CD0008C01AC0143705070FA01E254FE4F8081B8
:103CE0008983C801E3E096958795EA95E1F78370AB
:103CF0009070FC01E254FE4F20812A83D80176E0C7
:103D0000B695A7957A95E1F7A370B070FD01E254DE
:103D1000FE4F20812B8345545E4FFA0120812C8376
:103D200085549E4FFC0180818D83A554BE4F8C919C
:103D30008E8386E294E063E070E07E010894E11CEB
:103D4000F11CA7010E949910892B09F052C08AE248
:103D500094E063E070E0AE014C5F5F4F0E94991009
:103D6000892B09F046C0D701E8EBF1E083E0019030
:103D70000D928150E1F7DE011496E5EBF1E083E06E
:103D800001900D928150E1F702FF06C089818160A8
:103D900089838C8181608C8305FF06C08A81816064
:103DA0008A838D8181608D8310FF06C08B81816045
:103DB0008B838E8181608E8380E494E063E070E089
:103DC000AE014F5F5F4F0E949910892B91F481E300
:103DD00094E063E070E0AE014C5F5F4F0E94991089
:103DE000892B39F41093F1020093F00220E030E0C7
:103DF00002C02FEF3FEFC90126960FB6F894DEBF41
:103E00000FBECDBFCF91DF911F910F91FF90EF902B
:103E1000089586EF9BE065E971E040E054E028EC0E
:103E200030E00E945F120895EF92FF920F931F936C
:103E3000CF93DF93582F162FE42E022FF32E80EE10
:103E400092E0652F0E94FB0E80EE92E0612F0E94AF
:103E50007D0F202F3F2DC901EC0110E006C080EE40
:103E600092E069910E947D0F1F5F1E15C0F380EEE6
:103E700092E00E94C00F90E0882309F491E0892F1E
:103E8000DF91CF911F910F91FF90EF9008952F92A6
:103E90003F924F925F926F927F928F929F92AF92DA
:103EA000BF92CF92DF92EF92FF920F931F93DF9317
:103EB000CF9300D000D00F92CDB7DEB7882E6983A4
:103EC000942E3B832A830E9417275B016C01FF24F9
:103ED000EE24292C33242801662477244BC080EE5D
:103EE00092E0682D0E94FB0E80EE92E069810E94B4
:103EF0007D0F80EE92E00E94C00F80EE92E0682D70
:103F00000E94FB0EA1014E1951094132510514F0D6
:103F100040E250E080EE92E0682D0E94D10F2F2DFC
:103F2000332727FD30958A819B81280F391F3D83D8
:103F30002C8380EE92E00E94050F892B09F452C079
:103F40000115110561F00E9417276A197B098C0978
:103F50009D09641575058605970508F043C080EE38
:103F600092E00E940E0FEC81FD818193FD83EC8332
:103F7000F394DFCFE91408F4B2CF01151105C9F0AD
:103F80000E9417276A197B098C099D09980140E056
:103F900050E0621773078407950758F02F2D3327D9
:103FA00027FD3095892D90E02817390714F4FF2458
:103FB000FA948F2D0F900F900F900F900F90CF913C
:103FC000DF911F910F91FF90EF90DF90CF90BF9006
:103FD000AF909F908F907F906F905F904F903F90A9
:103FE0002F90089580EE92E00E94C00F892DF0E29C
:103FF000F91508F480E2E80EBDCF0895209137034B
:10400000309138038091390390913A03281B390B82
:104010002F733070C9010895209137033091380310
:104020008091390390913A032817390719F42FEF3B
:104030003FEF09C0E0913903F0913A03E950FD4F99
:104040008081282F30E0C9010895209137033091F5
:1040500038038091390390913A032817390719F4EE
:104060002FEF3FEF13C0E0913903F0913A03E9508D
:10407000FD4F20818091390390913A0301968F730F
:10408000907090933A038093390330E0C90108950A
:1040900010923E0310923D0388EE93E0A0E0B0E062
:1040A00080933F0390934003A0934103B093420356
:1040B00085EC91E090933C0380933B0308951F931C
:1040C000109135016AE070E080E090E00E947B276B
:1040D000111111E0812F1F9108950F931F93DF930A
:1040E000CF930F92CDB7DEB78C01698380913501F4
:1040F000882369F083E0BE016F5F7F4F41E050E0AD
:104100000E9452231816190614F49C0107C081E07E
:1041100090E0F8019383828320E030E0C9010F90A2
:10412000CF91DF911F910F91089583E00E94292381
:104130000895CF93DF9312C082E00E94B4222FEF44
:104140008F3F9207C9F0E0913703F0913803E950AF
:10415000FD4F8083D0933803C0933703C09137035A
:10416000D09138032196CF73D0708091390390910C
:104170003A03C817D90701F7DF91CF910895FC01E1
:1041800080818E5F808380E86BE87DE042E450E0D0
:104190000E94CD220895FC0181819081913A59F4C9
:1041A000813209F04CC080E06EE271E047E050E0FF
:1041B0000E94CD2242C0913209F041C0803239F4D0
:1041C0008EE291E067E070E00E94112336C08232F7
:1041D00009F035C082818093350180912E01909144
:1041E0002F01A0913001B0913101805B9440A0403B
:1041F000B04019F58091350180FD12C087E797E73F
:1042000090930108809300082BE088E190E00FB6BE
:10421000F894A895809360000FBE209360000DC0B5
:1042200088E10FB6F89480936000109260000FBE92
:10423000A895109201081092000881E0089580E08E
:104240000895CF92DF92EF92FF920F931F93CF9337
:10425000DF937C016B018A01C0E0D0E00FC0D60182
:104260006D916D01D701ED91FC910190F081E02DF0
:10427000C7010995C80FD91F01501040011511053C
:1042800071F7CE01DF91CF911F910F91FF90EF90C9
:10429000DF90CF900895EF92FF920F931F93CF93EB
:1042A000DF937C018B01C0E0D0E0F8010F5F1F4F6E
:1042B0006491662359F0D701ED91FC910190F08152
:1042C000E02DC7010995C80FD91FEFCFCE01DF91AF
:1042D000CF911F910F91FF90EF900895EF92FF9271
:1042E0000F931F938C01DC01ED91FC910190F08103
:1042F000E02D6DE009957C01D801ED91FC910190D4
:10430000F081E02DC8016AE009959C012E0D3F1D4A
:10431000C9011F910F91FF90EF900895CF93DF9304
:10432000EC016115710519F420E030E00FC0DB01EC
:104330000D900020E9F71197A61BB70BE881F981D2
:104340000280F381E02DAD0109959C01C901DF9147
:10435000CF9108954F925F927F928F929F92AF92EA
:10436000BF92CF92DF92EF92FF920F931F93DF9352
:10437000CF93CDB7DEB7A1970FB6F894DEBF0FBECF
:10438000CDBF2C01742ECB01223008F42AE019A2F3
:1043900031E2C32ED12CCC0EDD1E822E9924AA240C
:1043A000BB24672D752FA50194010E940D2D790165
:1043B0008A01C801B701A50194010E94C72C472DAD
:1043C000461B0894C108D1084A3014F4405D01C06E
:1043D000495CF6014083E114F1040105110521F067
:1043E0007E2C5F2DC801DDCFC201B6010E948E2157
:1043F000A1960FB6F894DEBF0FBECDBFCF91DF916F
:104400001F910F91FF90EF90DF90CF90BF90AF90F2
:104410009F908F907F905F904F900895CF92DF9202
:10442000EF92FF920F931F93CF93DF93EC016A01FA
:104430007B012115310541F4E881F9810190F0817A
:10444000E02D642F09951FC02A303105D1F477FF84
:1044500017C0E881F9810190F081E02D6DE20995A6
:104460008C0144275527BA014C195D096E097F0953
:10447000CE012AE00E94AA219801280F391F04C00A
:104480002AE00E94AA219C01C901DF91CF911F91CE
:104490000F91FF90EF90DF90CF900895EF92FF92F1
:1044A0000F931F937B019A010027F7FC0095102FB3
:1044B000B801A7010E940E221F910F91FF90EF906B
:1044C0000895CF92DF92EF92FF920F931F936C01AA
:1044D0007B019A010027F7FC0095102FB801A70176
:1044E0000E940E228C01C6010E946E21080F191F26
:1044F000C8011F910F91FF90EF90DF90CF9008952A
:10450000282F80914B038823C1F057FF1AC015C094
:10451000289890934A038091F1008193E217F30762
:10452000B9F74115510539F08091F200882319F44B
:104530008BE68093E800AFBF02C04FEF5FEFCA0188
:104540000895AFB7F89427702093E9008091F200A6
:10455000282F30E0241735070CF4A901FB019B013B
:10456000240F311D94E6DACFDF93CF930F92CDB7AE
:10457000DEB7BE016F5F7F4F41E050E00E948022B6
:10458000019719F02FEF3FEF03C08981282F30E00A
:10459000C9010F90CF91DF910895FF920F931F9360
:1045A000F82E142F052F40914E0350914F03212FC9
:1045B000302FC901DC01FB016EEF29C0F7FE02C0FC
:1045C000949101C0908120914C0330914D032417A8
:1045D0003507ACF48091E8008570E1F38091E80044
:1045E00082FF03C02FEF3FEF17C09093F100C90186
:1045F00001968F739070892B11F46093E8002F5F00
:104600003F4F30934D0320934C03119731961097F1
:10461000A9F6812F902F9C01C9011F910F91FF9046
:1046200008959C018091E80082FFFCCFF901260FDC
:10463000311D03C08091F1008193E217F307D1F798
:10464000289884E680934A038BEF8093E800CB019F
:1046500008958093E9008091F200882319F08AE39D
:104660008093E8000895089510924B0381E08093B1
:10467000D70080EA8093D80082E189BD09B400FEAA
:10468000FDCF61E070E080E090E00E947B2780E950
:104690008093D8008CE08093E2001092E000559A5D
:1046A000209A08955F926F927F928F929F92AF921D
:1046B000BF92CF92DF92EF92FF920F931F93CF930F
:1046C000DF93E82E842E752E80914B03882371F1A1
:1046D0008B01242F352FC901EC017AEFF72E67E00B
:1046E000962E9E2050E4552E8E2D90E040E2A42E72
:1046F000B12CA822B9223AE3632E20E4C22ED12C99
:10470000C822D92258C09FB7F8949092E9008091AE
:10471000E80085FD02C020E004C08091F200252D54
:10472000281B9FBF222361F4FA9419F42FEF3FEF67
:104730004DC061E070E080E090E00E947B273BC0CC
:10474000822F90E0C817D9070CF42C2FC21BD10977
:104750004FB7F8949092E900A114B10421F406C077
:104760001092F10021502223D9F719C0E7FC03C0B1
:10477000F801922F10C0C801322F06C0FC0101962B
:10478000E491E093F10031503323C1F706C08191E9
:104790008093F10091509923D1F7020F111D809160
:1047A000E80085FF05C0209729F4C114D10411F059
:1047B0006092E8004FBF209709F0A5CF5D9884E68E
:1047C00080934903282D372DC9019C01C901DF9130
:1047D000CF911F910F91FF90EF90DF90CF90BF90FE
:1047E000AF909F908F907F906F905F9008951F92F1
:1047F0000F920FB60F9211242F933F934F935F9315
:104800006F937F938F939F93AF93BF93EF93FF9398
:104810008091E1001092E100982F83FF0FC0109269
:10482000E90081E08093EB001092EC0082E380933A
:10483000ED0010924B0388E08093F00092FF34C0AB
:1048400083E08093E9008091F200882319F08AE3E5
:104850008093E8008FB7F89492E09093E9009091EC
:10486000F2008FBF992321F08BE393E00E949920FF
:1048700080914903882351F08091490381508093AE
:10488000490380914903882309F45D9A80914A0382
:10489000882351F080914A03815080934A0380918C
:1048A0004A03882309F4289AFF91EF91BF91AF91B1
:1048B0009F918F917F916F915F914F913F912F9138
:1048C0000F900FBE0F901F9018950F931F93DF93BB
:1048D000CF930F92CDB7DEB719828E010F5F1F4FB6
:1048E000C8010E94BF20C8010E94DA29898190E096
:1048F0000F90CF91DF911F910F9108951F920F920A
:104900000FB60F921124EF92FF921F932F933F93B4
:104910004F935F936F937F938F939F93AF93BF93C7
:10492000EF93FF93DF93CF93CDB7DEB76197DEBFF1
:10493000CDBF1092E9008091E80083FF0FC1FE0116
:1049400031969E01275F3F4F03C08091F100819314
:10495000E217F307D1F7289884E680934A0382EFA1
:104960008093E800998197FF05C08091E80080FF5F
:10497000FCCF03C08EEF8093E800292F30E0C901FF
:1049800080769070892B09F0C2C08A81882329F42F
:104990001092F1001092F100D6C0813009F4D3C01A
:1049A000833009F4D0C0853049F48091E80080FF5D
:1049B000FCCF8B8180688093E300C5C0863009F00E
:1049C0007CC01C81EF80F8841230C1F51092E900A0
:1049D00010924D0310924C0310924F0310924E030D
:1049E0000E94652499E0FE013996DF01292F1D926E
:1049F0002A95E9F799871A8791E09E8790E8988B26
:104A00009AEF998B20914C0330914D03275F3F4FD4
:104A10003C872B878D871092E90010924D031092EE
:104A20004C03F0924F03E0924E0380E0BF0149E057
:104A300050E00E94CD220E94652485C01092E900BA
:104A400010924D0310924C03F0924F03E0924E03EC
:104A5000123241F482E290E00E94D229892B09F4BB
:104A600076C071C0113079F488E0E816F10419F4C9
:104A700081E08093500380915003882309F06BC03C
:104A8000EBE0FEE013C0133009F061C08B81882396
:104A900019F4EDECFDE00AC0823019F4E1EDFDE01F
:104AA00005C0813009F053C0E3EFFDE0449180E898
:104AB000BF0150E00E94CD2246C0873009F447C0B4
:104AC000883021F481E08093F1003DC08930D9F530
:104AD00023703070232BD9F5E0E3FEE091E031E064
:104AE00026E39093E9003093EB0084918093EC00EF
:104AF0002093ED009F5F3196953099F78EE7809374
:104B0000EA001092EA008B8180934B031CC08F81D6
:104B100098851092E90010924D0310924C039093E7
:104B20004F0380934E038D81882329F4CE01019693
:104B30000E94CB2006C0823051F4CE0101960E9423
:104B4000A328882321F08EEF8093E80007C081E23C
:104B50008093EB0003C0EDE1FEE0A8CF6196DEBFDD
:104B6000CDBFCF91DF91FF91EF91BF91AF919F9119
:104B70008F917F916F915F914F913F912F911F91F5
:104B8000FF90EF900F900FBE0F901F9018958430FC
:104B9000F0F5E82FF0E0EE0FFF1FEE5AFC4F7183A7
:104BA0006083813079F0813028F08230B9F0833031
:104BB00071F521C0809169008C7F842B80936900FE
:104BC000E89A089580916900440F551F440F551FBE
:104BD000837F842B80936900E99A0895809169000E
:104BE00024E0440F551F2A95E1F78F7C842B809396
:104BF0006900EA9A08958091690096E0440F551F74
:104C00009A95E1F78F73842B80936900EB9A08954E
:104C10001F920F920FB60F9211242F933F934F9331
:104C20005F936F937F938F939F93AF93BF93EF9314
:104C3000FF938091520390915303892B29F0E091C7
:104C40005203F09153030995FF91EF91BF91AF91FA
:104C50009F918F917F916F915F914F913F912F9194
:104C60000F900FBE0F901F9018951F920F920FB6C6
:104C70000F9211242F933F934F935F936F937F93E2
:104C80008F939F93AF93BF93EF93FF9380915403C0
:104C900090915503892B29F0E0915403F09155032D
:104CA0000995FF91EF91BF91AF919F918F917F9166
:104CB0006F915F914F913F912F910F900FBE0F9089
:104CC0001F9018951F920F920FB60F9211242F93D9
:104CD0003F934F935F936F937F938F939F93AF9384
:104CE000BF93EF93FF938091560390915703892BC5
:104CF00029F0E0915603F09157030995FF91EF9148
:104D0000BF91AF919F918F917F916F915F914F91E3
:104D10003F912F910F900FBE0F901F9018951F92EB
:104D20000F920FB60F9211242F933F934F935F93DF
:104D30006F937F938F939F93AF93BF93EF93FF9363
:104D40008091580390915903892B29F0E0915803E1
:104D5000F09159030995FF91EF91BF91AF919F9108
:104D60008F917F916F915F914F913F912F910F9014
:104D70000FBE0F901F901895CF93DF930E942527A9
:104D800081E593E00E9434230E94A10BC0E0D0E0B3
:104D90000E94D80A2097E1F30E940000F9CF1F92E9
:104DA0000F920FB60F9211242F933F938F939F93DF
:104DB000AF93BF9380915E0390915F03A0916003D6
:104DC000B0916103309162030196A11DB11D232FA3
:104DD0002D5F2D3720F02D570196A11DB11D209379
:104DE000620380935E0390935F03A0936003B0938C
:104DF000610380915A0390915B03A0915C03B09191
:104E00005D030196A11DB11D80935A0390935B032E
:104E1000A0935C03B0935D03BF91AF919F918F917D
:104E20003F912F910F900FBE0F901F9018958FB745
:104E3000F89420915E0330915F034091600350919C
:104E400061038FBFB901CA010895789484B5826067
:104E500084BD84B5816084BD85B5826085BD85B51E
:104E6000816085BDEEE6F0E0808181608083E1E8CD
:104E7000F0E0108280818260808380818160808305
:104E8000E0E8F0E0808181608083E1E9F0E080810A
:104E900082608083808181608083E0E9F0E08081AE
:104EA00081608083E1ECF0E0808184608083808198
:104EB00082608083808181608083E3ECF0E0808188
:104EC00081608083E0ECF0E0808182608083E2ECAE
:104ED000F0E0808181608083EAE7F0E08081846097
:104EE00080838081826080838081816080838081F3
:104EF000806880830895EF92FF920F931F93CF9362
:104F0000DF937B018C013FB7F89480915A03909115
:104F10005B03A0915C03B0915D0326B5A89B05C01F
:104F20002F3F19F00196A11DB11D3FBFBA2FA92F28
:104F3000982F8827820F911DA11DB11D52E0880F67
:104F4000991FAA1FBB1F5A95D1F7EC0130C00E94D0
:104F5000E6293FB7F89480915A0390915B03A091A2
:104F60005C03B0915D0326B5A89B05C02F3F19F0E7
:104F70000196A11DB11D3FBFBA2FA92F982F8827D9
:104F8000820F911DA11DB11D32E0880F991FAA1F2C
:104F9000BB1F3A95D1F78C1B9D0B885E9340B8F2EE
:104FA0000894E108F10801091109C851DC4FE11426
:104FB000F1040105110559F6DF91CF911F910F9171
:104FC000FF90EF900895CF93DF93482F50E0CA01F0
:104FD0008458914FFC013491425A514FFA01849107
:104FE000882369F190E0880F991FFC01EC5CF14F78
:104FF000A591B491FC01EE5BF14FC591D49166236C
:1050000051F42FB7F8948C91932F909589238C931A
:10501000888189230BC0623061F42FB7F8948C919A
:10502000932F909589238C938881832B88832FBF1E
:1050300006C09FB7F8948C91832B8C939FBFDF9110
:10504000CF910895883071F1893068F4823031F160
:10505000833020F4813009F042C01DC0833089F0D4
:105060008430E9F512C08B3059F18C3028F4893046
:10507000E9F08A30A1F51EC08C3031F18E3079F51F
:1050800029C0809180008F7703C0809180008F7D40
:1050900080938000089584B58F7702C084B58F7D9A
:1050A00084BD0895809190008F7707C08091900013
:1050B0008F7D03C080919000877F8093900008953A
:1050C0008091C0008F7703C08091C0008F7D809356
:1050D000C00008958091C200877F8093C200089528
:1050E000FF920F931F93F62E482F50E0CA01865669
:1050F000914FFC012491CA018458914FFC011491F5
:10510000425A514FFA0104910023C9F0222319F0A9
:10511000822F0E942228E02FF0E0EE0FFF1FEE5BAF
:10512000F14FA591B4919FB7F894FF2021F48C9191
:105130001095812302C08C91812B8C939FBF1F916E
:105140000F91FF900895FC0191818081813A31F4A3
:10515000913089F080E0933089F40DC0813269F498
:105160009B3021F482818093360105C09A3029F466
:1051700082818093370181E0089580E00895EF9265
:10518000FF920F931F938C01E62EDC01ED91FC91B1
:105190000480F581E02D0995F82ED801ED91FC9160
:1051A0000680F781E02DC8016E2D09958F2D90E0C6
:1051B0001F910F91FF90EF9008951092630310924A
:1051C00067031092660387ED91E0909365038093E7
:1051D00064030895EF92FF920F931F93DF93CF9391
:1051E0000F92CDB7DEB789838B017A0184E0BE01CF
:1051F0006F5F7F4F41E050E00E94522384E4B8018A
:10520000A7010E9452230F90CF91DF911F910F9120
:10521000FF90EF90089582E048E050E00E94EA2875
:105220000895FC0116821782108611861286138655
:1052300014823496BF010E940B290895DC0168385E
:1052400010F0685829C0E62FF0E067FF13C0E0585F
:10525000F04081E090E002C0880F991FEA95E2F7E4
:10526000809514962C911497282314962C931497B8
:1052700060E012C0EC5CF04F6491662319F420E00A
:1052800030E01DC067FF08C014968C9114978D7F85
:1052900014968C9314976F77FD0190E0662321F0AC
:1052A0008681861709F416829F5F31969630B1F792
:1052B000CD011496BD010E940B2921E030E0C90107
:1052C0000895CF93DF93DC01683810F0685825C04B
:1052D000E62FF0E067FF12C0E058F04081E090E078
:1052E00002C0880F991FEA95E2F714962C91149743
:1052F000282B14962C93149760E00FC0EC5CF04FB1
:1053000064916623D9F167FF08C014968C911497B5
:10531000826014968C9314976F7716968C911697DB
:105320008617A9F117968C911797861781F1189611
:105330008C911897861759F119968C9119978617A1
:1053400031F11A968C911A97861709F11B968C9158
:105350001B978617E1F0ED01E0E0F0E09E2F8E81D3
:10536000882321F4EA0FFB1F668306C09F5F3196F6
:105370002196E630F10591F7963049F481E090E00E
:1053800013969C938E93129720E030E007C0CD01D6
:105390001496BD010E940B2921E030E0C901DF9184
:1053A000CF91089580E866EB7EE045E650E00E94EC
:1053B000CD220895FC0180818F5F808380E86BE1BE
:1053C0007FE049E150E00E94CD22089508955058B1
:1053D000BB27AA270ED0CFC1C0D130F0C5D120F055
:1053E00031F49F3F11F41EF490C10EF4E095E7FBF9
:1053F00086C1E92FD1D180F3BA17620773078407FA
:10540000950718F071F49EF5E9C10EF4E0950B2EA6
:10541000BA2FA02D0B01B90190010C01CA01A00106
:105420001124FF27591B99F0593F50F4503E68F161
:105430001A16F040A22F232F342F4427585FF3CFA2
:10544000469537952795A795F0405395C9F77EF473
:105450001F16BA0B620B730B840BBAF09150A1F0BC
:10546000FF0FBB1F661F771F881FC2F70EC0BA0F42
:10547000621F731F841F48F4879577956795B795CA
:10548000F7959E3F08F0B3CF9395880F08F09927C2
:10549000EE0F97958795089560D158F080E891E0D8
:1054A00009F49EEF61D128F040E851E059F45EEF35
:1054B00009C02BC193C1E92FE0786ED168F3092EA2
:1054C000052AC1F3261737074807590738F00E2E6B
:1054D00007F8E02569F0E025E0640AC0EF6307F80B
:1054E000009407FADB01B9019D01DC01CA01AD019D
:1054F000EF9343D040D10AD05F91552331F02BED8B
:105500003FE049E450FD49EC63CF0895DF93DD2788
:10551000B92FBF7740E85FE31616170648075B0709
:1055200010F4D92F62D19F938F937F936F9315D2ED
:10553000ECEAF0E0EDD01FD12F913F914F915F91B8
:1055400067D1DD2349F09058A2EA2AED3FE049EC0B
:105550005FE3D0785D274DDFDF910DC10CD00BC12B
:1055600003D140F0FAD030F021F45F3F19F0C7C00A
:10557000511135C1CAC010D198F39923C9F35523ED
:10558000B1F3951B550BBB27AA2762177307840736
:1055900038F09F5F5F4F220F331F441FAA1FA9F3EC
:1055A00033D00E2E3AF0E0E830D091505040E695DE
:1055B000001CCAF729D0FE2F27D0660F771F881F3F
:1055C000BB1F261737074807AB07B0E809F0BB0B2E
:1055D000802DBF01FF2793585F4F2AF09E3F510552
:1055E00068F08DC0FCC05F3FECF3983EDCF386951D
:1055F00077956795B795F7959F5FC9F7880F911DC8
:105600009695879597F90895E1E0660F771F881FB3
:10561000BB1F621773078407BA0720F0621B730B66
:10562000840BBA0BEE1F88F7E0950895BDD088F083
:105630009F5790F0B92F9927B751A0F0D1F0660F7E
:10564000771F881F991F1AF0BA95C9F712C0B13099
:1056500081F0C4D0B1E00895C1C0672F782F8827AA
:10566000B85F39F0B93FCCF3869577956795B395D8
:10567000D9F73EF490958095709561957F4F8F4F47
:105680009F4F0895E89409C097FB3EF4909580954C
:10569000709561957F4F8F4F9F4F9923A9F0F92FF8
:1056A00096E9BB279395F695879577956795B79576
:1056B000F111F8CFFAF4BB0F11F460FF1BC06F5F5C
:1056C0007F4F8F4F9F4F16C0882311F096E911C06E
:1056D000772321F09EE8872F762F05C0662371F08F
:1056E00096E8862F70E060E02AF09A95660F771FA3
:1056F000881FDAF7880F9695879597F9089597F997
:105700009F6780E870E060E008959FEF80EC089567
:10571000DF93CF931F930F93FF92EF92DF927B0162
:105720008C01689405C0DA2EEF0172D0FE01E89476
:10573000A5912591359145915591AEF3EF0159DE33
:10574000FE019701A801DA9479F7DF90EF90FF90BE
:105750000F911F91CF91DF91089500240A9416169E
:10576000170618060906089500240A94121613064F
:10577000140605060895092E0394000C11F48823DD
:1057800052F0BB0F40F4BF2B11F460FF04C06F5FF9
:105790007F4F8F4F9F4F089557FD9058440F551FCF
:1057A00059F05F3F71F04795880F97FB991F61F0A3
:1057B0009F3F79F087950895121613061406551F1A
:1057C000F2CF4695F1DF08C0161617061806991F86
:1057D000F1CF86957105610508940895E894BB277B
:1057E00066277727CB0197F908959B01AC0160E00C
:1057F00070E080E89FE3B2CE0BD0BDCFAEDF28F0E3
:10580000B3DF18F0952309F07ACF7FCF1124E7CFCB
:10581000C3DFA0F3959FD1F3950F50E0551F629F12
:10582000F001729FBB27F00DB11D639FAA27F00DF9
:10583000B11DAA1F649F6627B00DA11D661F829F20
:105840002227B00DA11D621F739FB00DA11D621F05
:10585000839FA00D611D221F749F3327A00D611D22
:10586000231F849F600D211D822F762F6A2F112404
:105870009F5750408AF0E1F088234AF0EE0FFF1F57
:10588000BB1F661F771F881F91505040A9F79E3F8E
:10589000510570F034CFA3CF5F3FECF3983EDCF3BB
:1058A000869577956795B795F795E7959F5FC1F7CB
:1058B000FE2B880F911D9695879597F9089511F401
:1058C0000EF423CF4DC070DFD0F39923D9F3CEF37C
:1058D0009F57550B87FF54D056959795B0E020F40D
:1058E000660F771F881FBB1F1F930F930024900123
:1058F000A0018001F001A0E80E0F1F1F0A1E511D1C
:10590000601B710B8009B50B48F4600F711F801D7F
:10591000B51F0E1B1F0B0A0A510907C02E0F3F1F90
:105920004A1F0E0F1F1F0A1E511D660F771F881F6B
:10593000BB1FA695F795E795F8F606171707080613
:105940005B07211D311D411D0F911F91B901842F4E
:105950009158880F9695879508959B01AC014CCF7F
:105960009F3F49F0915028F4869577956795B795B4
:105970009F5F80389F4F880F9695879597F9089578
:1059800091505040660F771F881FD2F70895629F8D
:10599000D001739FF001829FE00DF11D649FE00D27
:1059A000F11D929FF00D839FF00D749FF00D659F88
:1059B000F00D9927729FB00DE11DF91F639FB00D87
:1059C000E11DF91FBD01CF0111240895AA1BBB1BC6
:1059D00051E107C0AA1FBB1FA617B70710F0A61BEF
:1059E000B70B881F991F5A95A9F780959095BC0110
:1059F000CD01089597FB092E07260AD077FD04D024
:105A0000E5DF06D000201AF4709561957F4F089568
:105A1000F6F7909581959F4F0895A1E21A2EAA1B43
:105A2000BB1BFD010DC0AA1FBB1FEE1FFF1FA2174E
:105A3000B307E407F50720F0A21BB30BE40BF50B4B
:105A4000661F771F881F991F1A9469F760957095D4
:105A5000809590959B01AC01BD01CF01089597FB06
:105A6000092E05260ED057FD04D0D7DF0AD0001C22
:105A700038F450954095309521953F4F4F4F5F4FEB
:105A80000895F6F790958095709561957F4F8F4FAB
:105A90009F4F0895EE0FFF1F0590F491E02D09949C
:045AA000F894FFCFA8
:105AA400010000000100000001480166010000003F
:105AB40000000000000000000000000000000000E2
:105AC400000000000000000000007001E80300E195
:105AD4000000000000000101000000007D0F4C0FD9
