:100000000C9481070C945F290C948C290C94B929C9
:100010000C94E6290C94A9070C94A9070C94A90741
:100020000C94A9070C94A9070C944E270C94D5277F
:100030000C94A9070C94A9070C94A9070C94A90780
:100040000C94A9070C94A9070C94A9070C94A90770
:100050000C94A9070C94A9070C94A9070C94262AC0
:100060000C94A9070C94A9070C94A9070C94A90750
:100070000C94A9070C94A9070C94A9070C94A90740
:100080000C94A9070C94A9070C94A9070C94A90730
:100090000C94A70F0C94A9070C94A9070C94A9071A
:1000A0000C94A9070C94A9070C94A907084AD73BFC
:1000B0003BCE016E84BCBFFDC12F3D6C74319ABD37
:1000C00056833DDA3D00C77F11BED9E4BB4C3E915B
:1000D0006BAAAABE000000803F0000700000000074
:1000E00024000000020003000000650054FFEF0040
:1000F00000FA80000B12820001030C30C30E8C8CBE
:10010000E914D5400213710F8E3883F8833000F85C
:1001100083258EF8833000F883FFFFFFFF0FFEA9D1
:10012000D6240004001A8279A10000003CFFFF00E1
:10013000000010000038836FA2003E033040000032
:100140000002CAE3093E8000002000000000000019
:10015000004000000060000000000C0000000C18CF
:100160006E000006920A16C0DFFFFF0256FD8CD318
:1001700077FFE1C496E0C5BEAA00000000FFFF0BB8
:100180002B00001657000003594000000000001D1E
:10019000FA00026C1D000000003FFFDFEB003EB3E1
:1001A000B6000D227800002F3C000000000019422C
:1001B000B5000039A20000B365D90E9FC91DCF4C10
:1001C0003430000000500000003BB67AE8006400C4
:1001D0000000C8000000000000100000001000FA3D
:1001E000921000225E000D229F00010000003200EC
:1001F00000FF46000063D400001000000004D60099
:100200000004CC000004CC000000001072000000CC
:100210004000000000000000000006000200050091
:100220000700000000006400000000000000000063
:100230000500050064002000000000000000000030
:1002400000000040000000030000000032F89800A9
:1002500000FF650000830F0000FF9BFC0000000012
:10026000000000000000000000000000000000008E
:10027000000000000000000000000000000000007E
:10028000000000000000001000400000000000001E
:10029000060000B26A000200000001FB8300680053
:1002A0000000D9FC007CF1FF830000000000650025
:1002B00000006403E800640028000000250000003E
:1002C0000016A000000000100000001000002F0029
:1002D00000000001F40000100000280000FFFF45AE
:1002E00081FFFFFA720000000000000000004400DF
:1002F000050005BAC6004778A20000000100000012
:100300000000000600000000140000254D002F70C2
:100310006D000005AE000C02D000000000000000DF
:10032000000000000000000000001B0000000000B2
:100330000000000000000000000064000000080051
:1003400000000000000000000000000000000000AD
:10035000000000000000000000000000000000009D
:10036000000000000000000000000000000000008D
:10037000000000000000000000000000000000007D
:10038000000000000000000000000000000000006D
:10039000000000000000000000001B000000000042
:1003A0000000000000000E000E00000AC70004005C
:1003B0000000000032FFFFFF9C00000B2B0000003C
:1003C000020000000100000064FFE50000000000E2
:1003D000000000000000000000000000010000001C
:1003E000000001000000000000000180000001800A
:1003F0000000018000002426D3000000000000005F
:1004000000000600100096003C0000000000000004
:100410000000000000000000000C0A4E68CDCF77FD
:100420000950166759C619CE82000000000000006E
:1004300000000000000000000000000000000000BC
:100440000017D78400030000000000000000000037
:1004500000C7938F9D1E1B1C1900000000000000A8
:10046000000000000000000000000000000000008C
:100470000002031885000040000000000300000097
:100480000300000000000000004000000000000029
:10049000000000000000000000000000000000005C
:1004A000000000000000000000000000000000004C
:1004B00000000000000000000000000000677DDF79
:1004C0007E72902E554CF6E6880000000000000079
:1004D000000000000000000000D8DCB4B8B0D8B9BB
:1004E000ABF3F8FAB3B7BB8E9EAEF132F51BF1B4A5
:1004F000B8B08097F1A9DFDFDFAADFDFDFF2AAC59E
:10050000CDC7A90CC92C97F1A989264666B289994D
:10051000A92D557DB0B08AA896365676F1BAA3B407
:10052000B280C0B8A89711B28398BAA3F024084447
:10053000106418B2B9B49883F1A329557DBAB5B146
:10054000A38393F0002850F5B2B6AA839328547C75
:10055000F1B9A3829361BAA2DADEDFDB819AB9AE88
:10056000F5606870F1DABAA2DFD9BAA2FAB9A3824B
:1005700092DB31BAA2D9BAA2F8DF85A4D0C1BBAD53
:1005800083C2C5C7B8A2DFDFDFBAA0DFDFDFD8D8FC
:10059000F1B8AAB38DB4980D355DB2B6BAAF8C96EA
:1005A000198F9FA70E161EB49AB8AA872C547CBA2E
:1005B000A4B08AB691325676B28494A4C808CDD835
:1005C000B8B4B0F19982A82D557D98A80E161EA238
:1005D0002C547C92A4F02C5078F184A898C4CDFCC3
:1005E000D80DDBA8FC2DF3D9BAA6F8DABAA6DED866
:1005F000BAB2B68696A6D0F3C841DAA6C8F8D8B083
:10060000B4B882A892F52C548898F135D9F418D84A
:10061000F1A2D0F8F9A884D9C7DFF8F883C5DADFEA
:1006200069DF83C1D8F40114F1A8824EA884F311C4
:10063000D182F5D992289788F109F41C1CD884A896
:10064000F3C0F9D1D99782F129F40DD8F3F9F9D192
:10065000D982F4C203D8DEDF1AD8F1A2FAF9A8844D
:1006600098D9C7DFF8F8F883C7DADF69DFF883C302
:10067000D8F40114F198A8822EA884F311D182F540
:10068000D992509788F109F41CD884A8F3C0F8F9DE
:10069000D1D99782F149F40DD8F3F9F9D1D982F47F
:1006A000C403D8DEDFD8F1AD8898CCA809F9D98287
:1006B00092A8F57CF1883ACF944A6E98DB6931DADA
:1006C000ADF2DEF9D88795A8F221D1DAA5F9F417B1
:1006D000D9F1AE8ED0C0C3AE82C684C3A88595C8FA
:1006E000A588F2C0F1F4010EF18E9EA8C63E56F523
:1006F00054F18872F40115F19845856EF58E9E04CB
:1007000088F142985A8E9E068869F4011CF1981E61
:100710001108D0F504F11E970202983625DBF9D9AD
:1007200085A5F3C1DA85A5F3DFD88595A8F309DAA5
:10073000A5FAD88292A8F578F1881A849F2688981D
:1007400021DAF41DF3D8879F39D1AFD9DFDFFBF968
:10075000F40CF3D8FAD0F8DAF9F9D0DFD9F9D8F4F3
:100760000BD8F3879F39D1AFD9DFDFF41DF3D8FA67
:10077000FCA869F9F9AFD0DADEFAD9F88F9FA8F1B1
:10078000CCF398DB45D9AFDFD0F8D8F18F9FA8CA5A
:10079000F38809DAAF8FCBF8D8F2AD978D0CD9A5D5
:1007A000DFF9BAA6F3FAF412F2D8950DD1D9BAA6A8
:1007B000F3FADAA5F2C1BAA6F3DFD8F1BAB2B68677
:1007C00096A6D0CAF349DAA6CBF8D8B0B4B8D8AD5B
:1007D00084F2C0DFF18FCBC3A8B2B68696C8C1CB76
:1007E000C3F3B0B48898A821DB718D9D71859521E4
:1007F000D9ADF2FAD88597A828D9F408D8F28D296E
:10080000DAF405D9F285A4C2F2D8A88D9401D1D921
:10081000F411F2D88721D8F40AD8F28498A8C80134
:10082000D1D9F411D8F3A4C8BBAFD0F2DEF8F8F8F0
:10083000F8F8F8F8F8D8F1B8F6B5B9B08A95A3DEAB
:100840003CA3D9F8D85CA3D9F8D87CA3D9F8D8F8B8
:10085000F9D1A5D9DFDAFAD8B18530F7D9DED8F8E1
:1008600030ADDADED8F2B48C99A32D557DA083DFAC
:10087000DFDFB591A0F629D9FBD8A0FC29D9FAD899
:10088000A0D051D9F8D8FC51D9F9D879D9FBD8A042
:10089000D0FC79D9FAD8A1F9F9F9F9F9A0DADFDFB2
:1008A000DFD8A1F8F8F8F8F8ACDEF8ADDE8393AC49
:1008B0002C547CF1A8DFDFDFF69D2CDAA0DFD9FA1B
:1008C000DB2DF8D8A850DAA0D0DED9D0F8F8F8DBC4
:1008D00055F8D8A878DAA0D0DFD9D0FAF8F8F8F827
:1008E000DB7DF8D89CA88CF530DB38D9D0DEDFA0D2
:1008F000D0DEDFD8A848DB58D9DFD0DEA0DFD0DEDD
:10090000D8A868DB70D9DFDFA0DFDFD8F1A8889036
:100910002C547C98A8D05C38D1DAF2AE8CDFF9D8B0
:10092000B087A8C1C1B188A8C6F9F9DA36D8A8F944
:10093000DA36D8A8F9DA36D8A8F9DA36D8A8F9DA42
:1009400036D8F78D9DADF818DAF2AEDFD8F7ADFAEC
:1009500030D9A4DEF9D8F2AEDEFAF983A7D9C3C53F
:10096000C7F1889BA77AADF7DEDFA4F8849408A7C7
:1009700097F300AEF29819A488C6A39488F632DFE4
:10098000F28393DB09D9F2AADFD8D8AEF8F9D1DA2D
:10099000F3A4DEA7F1889B7AD8F38494AE19F9DA30
:1009A000AAF1DFD8A881C0C3C5C7A39283F628AD3A
:1009B000DED9F8D8A350ADD9F8D8A378ADD9F8D8F6
:1009C000F8F9D1A1DADEC3C5C7D8A18194F818F22D
:1009D000B089ACC3C5C7F1D8B8B4B09786A8319B6D
:1009E000069907AB9728889BF00C201440B0B4B848
:1009F000F0A88A9A285078B79BA829517924705971
:100A0000446938644831F1BBAB88002C547CF0B3A6
:100A10008BB8A804285078F1B088B49726A85998C4
:100A2000BBABB38B02264666B0B8F08A9CA82951AE
:100A3000798B2951798A2470598B2058718A44699D
:100A4000388B3940688A6448318B30496088F1AC12
:100A5000002C547CF08CA804285078F1889726A8A4
:100A60005998AC8C02264666F0899CA829517924B5
:100A70007059446938644831A98809205970AB110C
:100A8000384069A8193148608CA83C415C207C0042
:100A9000F187981986A86E767EA999882D557DD8FC
:100AA000B1B5B9A3DFDFDFAED0DFAAD0DEF2ABF89D
:100AB000F9D9B087C4AAF1DFDFBBAFDFDFB9D8B1A6
:100AC000F1A3978E60DFB084F2C8F8F9D9DED8932D
:100AD00085F14AB183A308B5839A0810B79F10D84F
:100AE000F1B0BAAEB08AC2B2B68E9EF1FBD9F41D97
:100AF000D8F9D90CF1D8F8F8AD61D9AEFBD8F40C1F
:100B0000F1D8F8F8AD19D9AEFBDFD8F416F1D8F862
:100B1000AD8D61D9F4F4ACF59C9C8DDF2BBAB6AEEB
:100B2000FAF8F40BD8F1AED0F8AD51DAAEFAF8F12C
:100B3000D8B9B1B6A3839C08B9B1839AB5AAC0FD50
:100B40003083B79F10B58B93F20202D1ABDADED8B7
:100B5000F1B080BAABC0C3B284C1C3D8B1B9F38B12
:100B6000A391B609B4D9ABDEB0879CB9A3DDF1B3CC
:100B70008B8B8B8B8BB087A3A3A3A3B28BB69BF27B
:100B8000A3A3A3A3A3A3A3A3A3A3F1B087B59AA3ED
:100B9000F39BA3A3DCBAACDFB9A3A3A3A3A3A3A332
:100BA000A3A3A3A3A3A3A3A3A3D8D8D8BBB3B7F1EC
:100BB000AAF9DAFFD9809AAA28B48098A720B79713
:100BC00087A86688F07951F1902C870CA7819762ED
:100BD00093F071716085940129517990A5F1284CA9
:100BE0006C870C95188578A38390284C6C886CD8FA
:100BF000F3A28200F210A8921980A2F2D926D8F1AD
:100C000088A84DD948D896A83980D93CD89580A8CD
:100C100039A68698D92CDA87A72CD8A8899519A93E
:100C200080D938D8A88939A980DA3CD8A82EA83923
:100C300090D90CD8A8953198D90CD8A809D9FFD843
:100C400001DAFFD89539A9DA26FFD890A80D89993D
:100C5000A810809821DA2ED88999A83180DA2ED868
:100C6000A886963180DA2ED8A8873180DA2ED8A8C7
:100C70008292F34180F1D92ED8A882F31980F1D95C
:100C80002ED882ACF3C0A28022F1A62EA72EA922D4
:100C900098A829DAACDEFFD8A2F22AF1A92E829216
:100CA000A8F23180A696F1D900AC8C9C0C30ACDE59
:100CB000D0DEFFD88C9CACD010ACDE8092A2F24C7F
:100CC00082A8F1CAF235F19688A6D900D8F1FF08BA
:100CD0000B000202020100090400000102020000F0
:100CE0000524001001052401010104240206052445
:100CF0000600010705810310004009040100020AF3
:100D000000000007050202400000070583024000C2
:100D100000040309042203410072006400750069A5
:100D2000006E006F0020004C0065006F006E0061D7
:100D300000720064006F00180341007200640075C7
:100D40000069006E006F0020004C004C0043001250
:100D50000100020000004041233680000101020032
:100D6000011201000202000040412336800001010F
:100D700002000100C18081C10000000024002700A2
:100D80002A002D00300000000000250028002B0064
:100D90002E003100000000002300260029002C0056
:100DA0002F000404040404030405020202020403E5
:100DB00002020202060606060606040402020204F5
:100DC000040802011040804010204080408008024A
:100DD00004018040201002011080102040400000DB
:100DE000000200080E0000030401000B00000706CB
:100DF00005040100080A0B0C0D0905010902A101F7
:100E00000901A10085010509190129031500250122
:100E1000950375018102950175058103050109306E
:100E2000093109381581257F750895038106C0C0F1
:100E300005010906A1018502050719E029E715004A
:100E400025017501950881029501750881039506B4
:100E50007508150025650507190029658100C00979
:100E600004020001030000000921010100012265C4
:100E7000000705840340000100000000000000009E
:100E80002A2B2800000000000000000000000000E5
:100E900000000000000000002C9EB4A0A1A2A43419
:100EA000A6A7A5AE362D3738271E1F2021222324C2
:100EB0002526B333B62EB7B89F8485868788898A5E
:100EC0008B8C8D8E8F909192939495969798999AFA
:100ED0009B9C9D2F3130A3AD350405060708090AF8
:100EE0000B0C0D0E0F101112131415161718191ADA
:100EF0001B1C1DAFB1B0B500D2089011A3228A26E9
:100F0000342C11241FBECFEFDAE0DEBFCDBF12E0DC
:100F1000A0E0B1E0ECEBF1E602C005900D92A43A3E
:100F2000B107D9F714E0A4EAB2E001C01D92A234DF
:100F3000B107E1F71EE0C2E0DFE004C02297FE0146
:100F40000E94D830C83FD107C9F70E94132A0C94D9
:100F5000DC300C940000FB01DC0104C08D91019099
:100F6000801921F441505040C8F7881B990B08950F
:100F700081E08093F4020895FC01808118161CF42E
:100F800020E030E01DC0882319F024E030E018C0D4
:100F9000818118161CF421E030E012C0882319F07A
:100FA00025E030E00DC0828118161CF422E030E00C
:100FB00007C0882319F427E030E002C026E030E0C3
:100FC000C9010895CF92DF92EF92FF920F931F9382
:100FD0007C010E94BC076C01C70103960E94BC07FC
:100FE0008C01C70106960E94BC0733E0000F111F59
:100FF0003A95E1F726E0880F991F2A95E1F7082B2B
:10100000192B0C291D29C8011F910F91FF90EF90FA
:10101000DF90CF9008952F923F924F925F926F9200
:101020007F928F929F92AF92BF92CF92DF92EF9278
:10103000FF920F931F93DF93CF9300D000D000D087
:10104000CDB7DEB79E838D83DB0114966D907D90C6
:101050008D909C9017971C968D919D910D90BC91B1
:10106000A02D89839A83AB83BC83FB01A080B180D0
:10107000C280D3802084318442845384C401B3016C
:1010800029813A814B815C810E94842F7B018C01F4
:10109000C601B501A20191010E94842F9B01AC0100
:1010A000C801B7010E943E2D9B01AC010E943F2D5B
:1010B000AD81BE816D937D938D939C931397C601F3
:1010C000B501A40193010E94842F7B018C01C20110
:1010D000B10129813A814B815C810E94842F9B015F
:1010E000AC01C801B7010E943F2D9B01AC010E94D9
:1010F0003F2DED81FE816483758386839783C601CE
:10110000B501A60195010E94842F7B018C01C401C9
:10111000B301A40193010E94842F9B01AC01C8017B
:10112000B7010E943E2D7B018C01C201B101A201D9
:1011300091010E94842F9B01AC01C801B7010E945C
:101140003E2D7B018C0169817A818B819C819B0181
:10115000AC010E94842F9B01AC01C801B7010E9421
:101160003F2DAD81BE8118966D937D938D939C9399
:101170001B9726960FB6F894DEBF0FBECDBFCF915A
:10118000DF911F910F91FF90EF90DF90CF90BF9074
:10119000AF909F908F907F906F905F904F903F9017
:1011A0002F90089580E090E0A0E0B0E08093AC0242
:1011B0009093AD02A093AE02B093AF028093B002C1
:1011C0009093B102A093B202B093B3028093B402A1
:1011D0009093B502A093B602B093B7028093B80281
:1011E0009093B902A093BA02B093BB028093C0025D
:1011F0009093C102A093C202B093C3028093C40231
:101200009093C502A093C602B093C7028093C80210
:101210009093C902A093CA02B093CB028093CC02F0
:101220009093CD02A093CE02B093CF0208954F9237
:101230005F926F927F928F929F92AF92BF92CF9266
:10124000DF92EF92FF920F931F934B015C012901F4
:101250003A0159E0C52E54E0D52EC60160E071E098
:101260000E94C724C601B501A40122E030E00E941B
:10127000AE2545E0A42E41E0B42EC601B5010E9482
:10128000C724C601B301A20122E030E00E94AE25CE
:10129000C601B5010E94C724C601B801A70122E01A
:1012A00030E00E94B1251F910F91FF90EF90DF90E9
:1012B000CF90BF90AF909F908F907F906F905F90F6
:1012C0004F900895CF92DF92EF92FF920F931F936A
:1012D0006C0109E014E0C80167E071E00E94C724D6
:1012E000F6014081518162817381C80122E030E0C2
:1012F0000E94AE2565E0E62E61E0F62EC801B7013A
:101300000E94C724F6014481558166817781C80116
:1013100022E030E00E94AE25C801B7010E94C72438
:10132000F6014085518562857385C80122E030E071
:101330000E94AE25C801B7010E94C724F60144856A
:10134000558566857785C80122E030E00E94B12589
:101350001F910F91FF90EF90DF90CF9008952F9203
:101360003F924F925F926F927F928F929F92AF9235
:10137000BF92CF92DF92EF92FF920F931F93DF9372
:10138000CF9300D000D000D0CDB7DEB79E838D8341
:101390006B011A01FB0184809580A680B780C5018E
:1013A000B401A50194010E943F2D69837A838B8348
:1013B0009C83F601E080F1800281138120853185D4
:1013C000428553850E94842F2B013C01C801B7013F
:1013D00020E030E040E050EC0E94842FF6012485AC
:1013E0003585468557850E94842F9B01AC01C3013A
:1013F000B2010E943F2D2B013C01C801B701A80199
:1014000097010E943F2DA80197010E94842F7B0124
:101410008C0169817A818B819C81A50194010E9454
:10142000842F9B01AC01C801B7010E943F2D20E031
:1014300030E040E85FE30E943E2D9B01AC01C30118
:10144000B2010E94B22DED81FE816083718382839F
:101450009383F1012481358146815781E084F184B1
:1014600002851385CA01B9010E94842F5B016C01BA
:10147000C801B701A80197010E94842F9B01AC010C
:10148000C601B5010E943F2D0E94EB2F9B01AC01CC
:10149000F10160817181828193810E94092E0E94F5
:1014A000DD2DED81FE816483758386839783F10151
:1014B0002081318142815381E084F184028513854A
:1014C000CA01B9010E94842F5B016C01C801B701F8
:1014D000A80197010E94842F9B01AC01C601B501B0
:1014E0000E943F2D0E94EB2F9B01AC01F101648112
:1014F0007581868197810E94092E0E94DD2DED81E4
:10150000FE81608771878287938726960FB6F8944D
:10151000DEBF0FBECDBFCF91DF911F910F91FF9026
:10152000EF90DF90CF90BF90AF909F908F907F9083
:101530006F905F904F903F902F90089581E00E94B0
:10154000051981E08093F20208950F931F93DF93B2
:10155000CF9300D000D0CDB7DEB788EB97E09A8369
:1015600089831C821B82CE0101960E94E719892B78
:1015700039F089E094E06DE071E00E94C72438C042
:1015800088E70E94691488E70E94F71584E690E0D6
:101590000E94AA168DEE92E00E94A6128FEE92E0B3
:1015A0000E9466128CEE92E00E94851289E0E1EFC3
:1015B000F2E0DF011D928A95E9F783E08093F10262
:1015C00084E090E09093F6028093F5020E946421FB
:1015D0008C01009779F089E094E06EE171E00E945F
:1015E000C72489E094E0B8014AE050E00E94A824B2
:1015F00080E00FC083EC91E00E94E2070E94B820D7
:1016000080E791E00E94991F84E690E00E94141EFA
:1016100081E00F900F900F900F90CF91DF911F916D
:101620000F9108952F923F924F925F926F927F9207
:101630008F929F92AF92BF92CF92DF92EF92FF92E2
:101640000F931F93DF93CF93CDB7DEB7E3970FB61A
:10165000F894DEBF0FBECDBF8091F402882309F459
:10166000A4C28091F202882309F49FC21982CE019C
:101670000496BE01665F7F4FAE01405F5F4F2CED69
:1016800032E08E010E5F1F4F7E010894E11CF11CB9
:101690000E94DF1A9C018981882311F41092F402C0
:1016A000232B09F082C28A819B81887091708850B7
:1016B000914009F07AC26C897D898E899F89BC012D
:1016C000992777FD9095892F0E94A42E20E030E085
:1016D00040E858E30E94842F7B018C01688D798D4E
:1016E0008A8D9B8DBC01992777FD9095892F0E944B
:1016F000A42E20E030E040E858E30E94842F5B01F4
:101700006C016C8D7D8D8E8D9F8DBC01992777FD31
:101710009095892F0E94A42E20E030E040E858E305
:101720000E94842F3B014C01688979898A899B89B1
:10173000BC01992777FD9095892F0E94A42E20E067
:1017400030E040E858E30E94842F68A379A38AA37D
:101750009BA3C701D8018CA39DA3AEA3BFA3C501C2
:10176000D60188A799A7AAA7BBA7C301D4018CA7B4
:101770009DA7AEA7BFA78E01005E1F4F80EE92E02F
:10178000B8010E940B0880ED92E0B80140EE52E0F3
:101790000E94AF098091A4029091A502892B69F45F
:1017A0000E946E2A68537A448040904030F081E075
:1017B00090E09093A5028093A4028091A40290915E
:1017C000A502019709F083C00E946E2A2091A6020B
:1017D0003091A70260527E448040904008F479C066
:1017E000B901882777FD8095982F0E94A42E7B0150
:1017F0008C016091A8027091A9028091AA02909137
:10180000AB02A80197010E94092E6093BC0270935D
:10181000BD028093BE029093BF026091AC027091B2
:10182000AD028091AE029091AF02A80197010E9493
:10183000092E6093C0027093C1028093C2029093FC
:10184000C3026091B0027091B1028091B202909196
:10185000B302A80197010E94092E6093C4027093FD
:10186000C5028093C6029093C7026091B402709142
:10187000B5028091B6029091B702A80197010E942B
:10188000092E6093C8027093C9028093CA02909394
:10189000CB026091B8027091B9028091BA02909126
:1018A000BB02A80197010E94092E6093CC0270939D
:1018B000CD028093CE029093CF0282E090E090938D
:1018C000A5028093A40280EC92E00E94620910E0DD
:1018D00007C02F5F3F4F3093A7022093A60211E06D
:1018E0006091D0027091D1028091D2029091D30286
:1018F00020EE3EE245E652E40E94842F6B017C011B
:101900002090D4023090D5024090D6025090D70259
:101910008091D8029091D902A091DA02B091DB02B5
:1019200088AB99ABAAABBBAB112309F46CC0609137
:10193000A8027091A9028091AA029091AB02A7011E
:1019400096010E943F2D6093A8027093A902809394
:10195000AA029093AB026091AC027091AD028091AB
:10196000AE029091AF0228A139A14AA15BA10E94C9
:101970003F2D6093AC027093AD028093AE029093C2
:10198000AF026091B0027091B1028091B202909169
:10199000B3022CA13DA14EA15FA10E943F2D6093F7
:1019A000B0027093B1028093B2029093B30260913F
:1019B000B4027091B5028091B6029091B70228A549
:1019C00039A54AA55BA50E943F2D6093B402709390
:1019D000B5028093B6029093B7026091B8027091FD
:1019E000B9028091BA029091BB022CA53DA54EA5EB
:1019F0005FA50E943F2D6093B8027093B902809357
:101A0000BA029093BB028091C201813729F4CE01C2
:101A100080960E946209C9C0873659F589E094E032
:101A200063E371E00E94C7246C817D8189E094E0CA
:101A30004AE050E00E94952489E094E065E071E07E
:101A40000E94C7246E817F8189E094E04AE050E0E3
:101A50000E94952489E094E065E071E00E94C7242B
:101A60006885798589E094E04AE050E00E94A824E6
:101A70009CC0C701B6012091BC023091BD024091CB
:101A8000BE025091BF020E943E2D3B014C0120E05E
:101A900030E044E353EC0E94052E882354F4C40143
:101AA000B30120E030E044EB53E40E943F2D3B01C2
:101AB0004C01C401B30120E030E044E353E40E9450
:101AC000792F181654F4C401B30120E030E044EB40
:101AD00053E40E943E2D3B014C01C201B10120EEB6
:101AE0003EE245E652E40E94842F5B016C0120E057
:101AF00030E044E353EC0E94052E882354F4C601E1
:101B0000B50120E030E044EB53E40E943F2D5B013F
:101B10006C01C601B50120E030E044E353E40E94CB
:101B2000792F181654F4C601B50120E030E044EBDB
:101B300053E40E943E2D5B016C0168A979A98AA932
:101B40009BA920EE3EE245E652E40E94842F7B01F1
:101B50008C0120E030E044E353EC0E94052E882302
:101B600054F4C801B70120E030E044EB53E40E9494
:101B70003F2D7B018C01C801B70120E030E044E338
:101B800053E40E94792F181654F4C801B70120E0DD
:101B900030E044EB53E40E943E2D7B018C01C401F4
:101BA000B301A60195010E941709E3960FB6F894B8
:101BB000DEBF0FBECDBFCF91DF911F910F91FF9080
:101BC000EF90DF90CF90BF90AF909F908F907F90DD
:101BD0006F905F904F903F902F900895EF92FF92FB
:101BE0000F931F93DF93CF9300D0CDB7DEB786E17D
:101BF00060E00E943A2B87E161E00E943A2B8DE081
:101C000061E00E943A2B8DE060E00E94C72B00E06B
:101C100010E0EE24FF2487E161E00E94C72B87E1FA
:101C200060E00E94C72B87E161E00E94C72B0F5F35
:101C30001F4F0830110551F486E161E00E94C72B67
:101C400086E160E00E94C72B00E010E00894E11CF0
:101C5000F11C80E1E81687E2F806E9F686E161E02A
:101C60000E94C72B86E160E00E94C72B8EEA93E0BA
:101C70000E9430124498459889E094E060E071EE4B
:101C80000E94582289E094E00E94BA228823D1F36E
:101C900089E094E00E94A62389E094E00E94A623B4
:101CA00089E094E068E371E00E94C72489E094E051
:101CB00062E070E04AE050E00E94952489E094E000
:101CC00069E571E00E94C72489E094E061E070E07A
:101CD0004AE050E00E94A82489E094E06BE571E0BE
:101CE0000E94C72420913E0430913F04CE0101960A
:101CF0002115310529F4825494409A83898318C0B0
:101D0000AC01421B530BE0914004F091410420E0F0
:101D100030E008C0808191810296280F391F02802F
:101D2000F381E02D3097B1F7240F351F3A832983D3
:101D300069817A8189E094E04AE050E00E94A82419
:101D400089E094E069E671E00E94C72489E094E0AC
:101D50000E94F0228DE061E00E94C72B0E94A50A3C
:101D6000882319F189E094E06DE771E00E94C724AF
:101D70000E949E0A89E094E00E94A62389E094E0F4
:101D800065E871E00E94C42589E094E00E94F02299
:101D90008DE060E00E94C72B0F900F90CF91DF91F4
:101DA0001F910F91FF90EF9008958DE060E00E94E9
:101DB000C72B89E094E06DE971E00E94C7240E947E
:101DC0000E1764E670E080E090E00E94D22A89E07D
:101DD00094E064EA71E00E94C425B8CF382F413204
:101DE00010F040E042C08091FA028823E1F791E0D0
:101DF0009093FA022093FC028FEF80936703109276
:101E000022034150409323034F5F9093FB02809144
:101E1000FB02330F832B8093FB028091FD02813004
:101E200041F41092FD028091FB028093BB0085EC8F
:101E300001C085EE8093BC008091FA028130E1F30D
:101E400080912203841710F44091220320E030E0B7
:101E50000AC0FB01E20FF31FD901AE5FBC4F8C91AA
:101E600080832F5F3F4F2417A0F3842F08950F9393
:101E70001F93582F122F413210F081E04AC08091F9
:101E8000FA028823E1F782E08093FA020093FC02D1
:101E90008FEF809367031092220340932303A2E005
:101EA000B3E0FB0102C081918D938E2F861B8417B6
:101EB000D0F31092FB028091FB02550F852B80938B
:101EC000FB028091FD02813041F41092FD0280916D
:101ED000FB028093BB0085EC01C085EE8093BC00C3
:101EE000112321F08091FA028230E1F3809167039F
:101EF0008F3F11F480E00DC080916703803211F4B0
:101F000082E007C080916703803311F084E001C054
:101F100083E01F910F910895482F613210F081E006
:101F200008958091FA02843011F082E00895609360
:101F30004503A4E2B3E0842F9C01F90102C0819122
:101F40008D938E2F841B8617D0F380E008951F9207
:101F50000F920FB60F9211242F933F934F935F93DD
:101F60006F937F938F939F93AF93BF93EF93FF9361
:101F70008091B90090E0887F90708036910509F4D7
:101F8000F2C081369105CCF58832910509F47BC009
:101F900089329105B4F48031910509F46FC0813123
:101FA00091053CF4009709F447C1089709F04FC127
:101FB00065C08831910509F466C0809709F047C172
:101FC00082C08034910509F4A4C08134910544F4A1
:101FD0008033910509F482C0C89709F038C189C0DF
:101FE0008035910509F489C08835910509F496C0BA
:101FF0008834910509F02BC1AEC08839910509F4E8
:1020000013C189399105ECF48837910509F4ABC007
:10201000893791054CF48836910509F4A4C08037BE
:10202000910509F014C19FC08838910509F4FCC0DE
:102030008039910509F49DC08038910509F007C1E8
:1020400098C0803B910509F4C6C0813B91054CF4D2
:10205000803A910509F49FC0883A910509F0F7C0CC
:10206000BAC0803C910509F4E3C0883C910509F4AD
:10207000DFC0883B910509F0EAC0C2C08091FB0235
:102080008093BB00CFC090912203809123039817C7
:1020900068F490912203E92FF0E0EE5FFC4F80811D
:1020A0008093BB009F5F90932203BCC08091FC0291
:1020B000882309F44BC085ED8093BC008091BC005F
:1020C00084FDFCCFC2C080E28093670385ED8093DE
:1020D000BC008091BC0084FDFCCFB7C080E380933E
:1020E000670385ED8093BC008091BC0084FDFCCF2C
:1020F000ACC088E3809367039BC0809122039091DA
:10210000BB00E82FF0E0EE5FFC4F90838F5F809381
:102110002203909122038091230382C080912203A5
:102120009091BB00E82FF0E0EE5FFC4F90838F5F53
:10213000809322038091FC02882341F085ED8093F7
:10214000BC008091BC0084FDFCCF7FC081E0809307
:10215000FD0284EA6EC085ED8093BC008091BC00D6
:1021600084FDFCCF72C083E08093FA021092660374
:1021700059C080916603803208F056C08091660392
:102180009091BB00E82FF0E0EA5BFC4F90838F5FFB
:102190008093660347C080916603803230F4E091FB
:1021A0006603F0E0EA5BFC4F108285ED8093BC0093
:1021B0008091BC0084FDFCCF1092FA02609166030E
:1021C000E0910003F091010386E493E070E009954B
:1021D000109266032DC084E08093FA0210924403AB
:1021E00010924503E091FE02F091FF020995809163
:1021F0004503882329F481E080934503109224034A
:1022000090914403E92FF0E0EC5DFC4F80818093D6
:10221000BB009F5F909344039091440380914503DA
:10222000981710F485EC01C085E88093BC000FC0BE
:1022300085EC8093BC0009C01092670385ED809304
:10224000BC008091BC0084FDFCCF1092FA02FF918B
:10225000EF91BF91AF919F918F917F916F915F911E
:102260004F913F912F910F900FBE0F901F90189597
:102270001092FA0281E08093FC021092FD0282E04B
:1022800061E00E94C72B83E061E00E94C72BE9EB6D
:10229000F0E080818E7F808380818D7F808388E4E1
:1022A0008093B80085E48093BC00089581E080931A
:1022B000AD0360938A031092AB031092AC030895B0
:1022C0002091890330E080918803281B3109C901DE
:1022D00008954091880380918903481718F02FEFE3
:1022E0003FEF0AC0E42FF0E0E859FC4F8081282F2F
:1022F00030E04F5F40938803C9010895E09188035F
:1023000080918903E81718F0EFEFFFEF06C0F0E0C7
:10231000E859FC4F8081E82FF0E0CF01089508953F
:102320001092B1031092B00388EE93E0A0E0B0E009
:102330008093B2039093B303A093B403B093B50317
:102340008FEF91E09093AF038093AE030895CF9207
:10235000DF92EF92FF920F931F93CF93DF937C0155
:102360006B018A018091AD038823A1F0C0E0D0E029
:102370000DC0D701ED91FC91D601AC0FBD1F0190AE
:10238000F081E02DC7016C9109952196C017D10706
:1023900080F304C0CB01642F0E948C0FC801DF9131
:1023A000CF911F910F91FF90EF90DF90CF90089504
:1023B000DF93CF930F92CDB7DEB7FC016983809195
:1023C000AD038823C9F08091AC03803238F081E0FE
:1023D00090E09383828320E030E015C08091AB03CE
:1023E000E82FF0E0E557FC4F998190838F5F809351
:1023F000AB038093AC0305C0CE01019661E00E945F
:102400008C0F21E030E0C9010F90CF91DF9108954A
:102410000F93062F80918A036BE873E04091AC0321
:1024200021E00E94370F1092AB031092AC03109280
:10243000AD030F91089561E00E94081208954132A2
:1024400008F040E2862F68E673E00E94EE0E1092DC
:10245000880380938903089521E00E941F12089544
:1024600010928803109289031092AB031092AC0370
:102470000E94381108950F931F938C010E946E2AB9
:10248000F80160837183828393831F910F91089574
:102490000F931F930091EF011091F0010E94A22170
:1024A000882319F42FEF3FEF02C020E030E0C9018C
:1024B0001F910F9108950E946F21882319F42FEF27
:1024C0003FEF02C020E030E0C9010895FC01809197
:1024D000D001813051F0813028F0823059F08330C2
:1024E00079F40BC08AEF90E002C084EF91E0918311
:1024F000808308C088EE93E0FACF80ED97E0F7CFB5
:102500001182108280E090E00895FC018091D10159
:10251000813059F0813038F0823049F0833049F011
:102520002FEF3FEF11C082E005C084E003C088E0D8
:1025300001C080E180838091DA01882319F08081D5
:10254000880F808320E030E0C9010895FC0180916C
:10255000E901882319F02FEF3FEF08C08091D501E2
:102560009091D6019183808320E030E0C9010895E5
:10257000DF93CF930F92CDB7DEB7982F8091E9010B
:10258000882321F0992379F082E00BC08091D20159
:10259000882319F1992339F08091D8018823D1F447
:1025A00081E0898301C01982E091CE01F091CF01D1
:1025B000A091CC01B091CD01808151966C9141E008
:1025C0009E012F5F3F4F0E945B12892B31F489815E
:1025D0008093D80120E030E002C02FEF3FEFC90127
:1025E0000F90CF91DF910895EF92FF920F931F9379
:1025F000DF93CF9300D0CDB7DEB7FC018B017A011A
:1026000041155105B1F18091D201882391F1A0913A
:10261000CE01B091CF019B012E0F311D18968D91E7
:102620009C9119978217930720F1F983EA83E0912F
:10263000CC01F091CD018C91638D42E09E012F5F22
:102640003F4F0E945B12892BA1F4E091CE01F091E3
:10265000CF01A091CC01B091CD01808158966C91B1
:10266000402F97010E945B12892B19F420E030E083
:1026700002C02FEF3FEFC9010F900F90CF91DF9174
:102680001F910F91FF90EF9008951F93DF93CF93C9
:102690000F92CDB7DEB7182F8091E801811761F155
:1026A000112319F080E3898301C019828091D90137
:1026B000882319F08981826089838091E7018823CA
:1026C00019F0898180688983E091CE01F091CF0172
:1026D000A091CC01B091CD01808157966C9141E0E1
:1026E0009E012F5F3F4F0E945B12892B19F02FEF45
:1026F0003FEF04C01093E80120E030E0C9010F90E3
:10270000CF91DF911F910895DF93CF930F92CDB7B3
:10271000DEB79C018091D2018823C9F12C3B3105A1
:1027200010F081E015C02236310510F082E010C0B3
:102730002A32310510F083E00BC02431310510F04E
:1027400084E006C02A30310510F085E001C086E043
:1027500089839091D30189819817B1F0E091CE01DE
:10276000F091CF01A091CC01B091CD018081129662
:102770006C9141E09E012F5F3F4F0E945B12892BBD
:1027800031F489818093D30120E030E002C02FEF43
:102790003FEFC9010F90CF91DF910895DF93CF9361
:1027A0000F92CDB7DEB7982F8091D2018823C1F167
:1027B000943061F0953018F4923091F505C098305E
:1027C00039F0903169F506C0198206C088E003C06F
:1027D00080E101C088E18983898186958695869507
:1027E0009091D1019817C9F0E091CE01F091CF01FD
:1027F000A091CC01B091CD01808117966C9141E000
:102800009E012F5F3F4F0E945B12892B49F4898103
:102810008695869586958093D10120E030E002C0B0
:102820002FEF3FEFC9010F90CF91DF910895DF9314
:10283000CF930F92CDB7DEB79C018091D201882350
:1028400009F440C081E0243F380791F081E0253F42
:10285000380720F42A3F3105A9F508C083E0283E57
:10286000380741F0205D374069F506C0198206C07F
:1028700088E003C080E101C088E189838981869571
:10288000869586959091D0019817C9F0E091CE0178
:10289000F091CF01A091CC01B091CD01808116962D
:1028A0006C9141E09E012F5F3F4F0E945B12892B8C
:1028B00049F489818695869586958093D00120E09C
:1028C00030E002C02FEF3FEFC9010F90CF91DF91B1
:1028D0000895FF920F931F93DF93CF930F92CDB77D
:1028E000DEB7F82E082F10E0C80180779070892B92
:1028F00011F081E005C0FF2011F0198202C080E4D0
:102900008983E091CE01F091CF01A091CC01B091EB
:10291000CD01808155966C9141E09E012F5F3F4F24
:102920000E945B12892B59F589818F7B8093D4019A
:10293000198206FD02C084E0898305FD03C08981F8
:102940008260898304FD03C089818160898303FDDE
:1029500003C0898188638983E091CE01F091CF0122
:10296000A091CC01B091CD01808156966C9141E04F
:102970009E012F5F3F4F0E945B12892B29F010921E
:10298000D2012FEF3FEF14C0FF2031F088E0F8169E
:1029900019F080E00E944513F092D2011092DB0101
:1029A00062E370E080E090E00E94D22A20E030E014
:1029B000C9010F90CF91DF911F910F91FF90089562
:1029C0000F931F93DF93CF930F92CDB7DEB7809114
:1029D000D201882309F4FFC01982E091CE01F09161
:1029E000CF01A091CC01B091CD01808151966C9125
:1029F00041E08E010F5F1F4F98010E945B12892BEF
:102A000009F0E9C0E091CE01F091CF01A091CC0195
:102A1000B091CD01808115966C9141E098010E94A2
:102A20005B12892B09F0D7C0E091CE01F091CF0164
:102A3000A091CC01B091CD01808114966C9141E0C0
:102A400098010E945B12892B09F0C5C08091E901B1
:102A5000E091CE01F091CF01A091CC01B091CD01D8
:102A6000882309F45AC08CE08983808114966C9184
:102A700041E098010E945B12892B09F0ACC062E32F
:102A800070E080E090E00E94D22A80EC89838091FF
:102A9000D20180FF02C080EE8983E091CE01F091E7
:102AA000CF01A091CC01B091CD01808114966C91A1
:102AB00041E09E012F5F3F4F0E945B12892B09F07E
:102AC0008AC08091D801882319F082E0898301C0EF
:102AD0001982E091CE01F091CF01A091CC01B0918B
:102AE000CD01808151966C9141E08E010F5F1F4FA7
:102AF00098010E945B12892B09F06DC01982E09148
:102B0000CE01F091CF01A091CC01B091CD01808197
:102B100015966C9141E098015AC084E089838081C8
:102B200014966C9141E098010E945B12892B09F088
:102B300052C08091D901882321F48091D20180FD77
:102B400002C080E401C080E68983E091CE01F0916B
:102B5000CF01A091CC01B091CD01808114966C91F0
:102B600041E09E012F5F3F4F0E945B12892B99F538
:102B700062E370E080E090E00E94D22A8091D80168
:102B8000882319F081E0898301C01982E091CE0188
:102B9000F091CF01A091CC01B091CD0180815196EF
:102BA0006C9141E09E012F5F3F4F0E945B12892B89
:102BB00091F4E091CE01F091CF01A091CC01B091C0
:102BC000CD01808115966C9141E027ED31E00E94A6
:102BD0005B12892B19F02FEF3FEF02C020E030E0AD
:102BE000C9010F90CF91DF911F910F9108950F931D
:102BF0001F93CF93DF93982F8091E901882319F0D9
:102C0000C0E0D0E02AC08091D201882321F1192FA1
:102C10001E7F0091D70181238093D701811719F47A
:102C2000C0E0D0E002C0CFEFDFEF112321F48091AC
:102C3000DB01882331F081E00E94B812112369F092
:102C400004C080E00E94B81208C00E94E014892BE2
:102C500021F00093D701CFEFDFEFCE01DF91CF91CD
:102C60001F910F9108951F93DF93CF9300D0CDB79D
:102C7000DEB7182F893208F064C08823E9F480E0B9
:102C80000E944513198287E08A83E091CE01F0917A
:102C9000CF01A091CC01B091CD01808155966C916E
:102CA00042E09E012F5F3F4F0E945B12892B09F08B
:102CB00048C01092DB0142C081E00E94451380E2CF
:102CC0008983113011F41A8204C0163028F481E08F
:102CD0008A8385E090E00BC0153128F482E08A8376
:102CE0008AE090E004C083E08A8384E190E00E945F
:102CF00084138A818295880F880F807C87608A83FD
:102D0000E091CE01F091CF01A091CC01B091CD0125
:102D1000808155966C9142E09E012F5F3F4F0E944B
:102D20005B12892B71F488E08093D2011092D40158
:102D300081E08093DB0180E00E94F71520E030E025
:102D400002C02FEF3FEFC9010F900F90CF91DF919D
:102D50001F9108950F931F93DF93CF930F92CDB7D9
:102D6000DEB78C018091D201882309F44EC0809196
:102D7000E901882309F049C08091DB01882359F0DB
:102D8000C8010197889720F4802F0E9433163AC01B
:102D900080E00E9433160430110518F464E070E0FE
:102DA00007C0B80183E0093E180710F068EE73E031
:102DB00088EE93E00E94723061506983E091CE0109
:102DC000F091CF01A091CC01B091CD0180811196FD
:102DD0006C9141E09E012F5F3F4F0E945B12892B57
:102DE000A1F4698170E06F5F7F4F88EE93E00E94ED
:102DF0008630CB017093D6016093D5019695879567
:102E00000E94841320E030E002C02FEF3FEFC901A1
:102E10000F90CF91DF911F910F910895EF92FF9244
:102E20000F931F93DF93CF9300D000D000D0CDB786
:102E3000DEB780E8898300E010E07E010894E11CA1
:102E4000F11CE091CE01F091CF01A091CC01B091A5
:102E5000CD01808155966C9141E097010E945B12F3
:102E6000892BC1F464E670E080E090E00E94D22AF1
:102E70001982E091CE01F091CF01A091CC01B091E7
:102E8000CD01808155966C9141E097010E945B12C3
:102E9000892B59F06AE070E080E090E00E94D22A2D
:102EA0000F5F1F4F0436110561F626960FB6F89492
:102EB000DEBF0FBECDBFCF91DF911F910F91FF906D
:102EC000EF900895EF92FF920F931F93DF93CF93AC
:102ED00000D0CDB7DEB7FC018B017A014115510559
:102EE000B1F18091D201882391F1A091CE01B091EE
:102EF000CF019B012E0F311D18968D919C91199732
:102F00008217930720F1F983EA83E091CC01F091D5
:102F1000CD018C91638D42E09E012F5F3F4F0E9457
:102F20005B12892BA1F4E091CE01F091CF01A09129
:102F3000CC01B091CD01808158966C91402F9701C2
:102F40000E944812892B19F420E030E002C02FEFD4
:102F50003FEFC9010F900F90CF91DF911F910F911B
:102F6000FF90EF9008952F923F924F925F926F9251
:102F70007F928F929F92AF92BF92CF92DF92EF9209
:102F8000FF920F931F93DF93CF93CDB7DEB7A29736
:102F90000FB6F894DEBF0FBECDBF4C015B011A0126
:102FA00029018091EA01882319F02DEF3FEF6EC0CF
:102FB0006115710519F42CEF3FEF68C0EE24FF2472
:102FC00053E1C52ED12CCC0EDD1E43E0642E712CB6
:102FD0006C0E7D1E34C084010E191F0901311105CC
:102FE00010F000E110E095012E0D3F1D80E090E013
:102FF00009C0F901E80FF91FE491D601A80FB91F24
:10300000EC93019680179107A0F3C701B801A601C0
:103010000E94F412892BC1F5C701B801A3010E94D7
:103020006217892B89F5C601B301A8010E94AB077D
:10303000009719F02EEF3FEF29C0E00EF11EE814C3
:10304000F90448F239822A82E091CE01F091CF0151
:10305000A091CC01B091CD0180815D966C9142E050
:103060009E012F5F3F4F0E945B12892B19F02BEFBF
:103070003FEF0CC081E08093EA015092EC01409256
:10308000EB0120E030E002C02FEF3FEFC901A29634
:103090000FB6F894DEBF0FBECDBFCF91DF911F9169
:1030A0000F91FF90EF90DF90CF90BF90AF909F90E7
:1030B0008F907F906F905F904F903F902F900895EA
:1030C000FF920F931F93DF93CF930F92CDB7DEB78D
:1030D000F82E8091D9018F1509F48AC0E091CE01B4
:1030E000F091CF01A091CC01B091CD018E010F5F85
:1030F0001F4FFF2069F1808114966C9141E0980187
:103100000E944812892B09F076C089818F7D8983BE
:10311000E091CE01F091CF01A091CC01B091CD0111
:10312000808114966C9141E098010E945B12892B7A
:1031300009F061C063E070E080E090E00E94D22A74
:1031400082E089838091E7018823B1F182E831C070
:10315000808114966C9141E098010E944812892B5D
:1031600009F049C08091D201998180FF02C090622C
:1031700001C09F7D9983E091CE01F091CF01A09194
:10318000CC01B091CD01808114966C9141E09E01FB
:103190002F5F3F4F0E945B12892B69F563E070E05F
:1031A00080E090E00E94D22A8091E701882319F004
:1031B00080E8898301C019828091E801882319F091
:1031C000898180638983E091CE01F091CF01A09144
:1031D000CC01B091CD01808157966C9141E09E0168
:1031E0002F5F3F4F0E945B12892B29F4F092D90187
:1031F00020E030E002C02FEF3FEFC9010F90CF91E8
:10320000DF911F910F91FF900895DF93CF930F925D
:10321000CDB7DEB7982F8091E9018917F1F1992395
:1032200031F18091EA01882319F42FEF3FEF37C085
:1032300080E00E94B81280E00E9460188091EB014B
:103240009091EC010E94AA161982E091CE01F091B2
:10325000CF01808163E241E09E012F5F3F4F0E94DA
:103260005B1281E08093E9010E94B81214C080E0F3
:103270000E94B8128091D7018983E091CE01F0912C
:10328000CF01808163E241E09E012F5F3F4F0E94AA
:103290005B121092E9010E94E01420E030E0C901C5
:1032A0000F90CF91DF9108958F929F92AF92BF922E
:1032B000CF92DF92EF92FF920F931F93DF93CF9302
:1032C00000D0CDB7DEB77C014B015A018091E901F6
:1032D000882319F42FEF3FEF6AC08091D201882331
:1032E00019F42CEF3FEF63C0E091CE01F091CF01D4
:1032F000A091CC01B091CD0180811C966C9142E0EF
:103300006E010894C11CD11C96010E944812892BA1
:1033100009F04BC0998180E02A81022F10E0082B30
:10332000192B0E151F0528F4F50110822BEF3FEF26
:103330003EC0A091CE01B091CF0111968D919C918C
:1033400012979695879580179107A0F4E091CC018C
:10335000F091CD018C91638941E096010E94481261
:10336000892B19F5898184FF05C00E94E0142DEF97
:103370003FEF1DC0E091CE01F091CF01A091CC01B3
:10338000B091CD0180811D966C914E2D94010E94CB
:103390004812892B51F4C801B7010E947230615064
:1033A000F501608320E030E002C02EEF3FEFC9015D
:1033B0000F900F90CF91DF911F910F91FF90EF90A1
:1033C000DF90CF90BF90AF909F908F900895EF9235
:1033D000FF920F931F93DF93CF9300D000D000D0C4
:1033E000CDB7DEB77C0180E88983E091CE01F09112
:1033F000CF01A091CC01B091CD01808155966C9107
:1034000041E08E010F5F1F4F98010E945B12892BD4
:1034100009F0C5C064E670E080E090E00E94D22A26
:103420001982E091CE01F091CF01A091CC01B09131
:10343000CD01808155966C9141E098010E945B120C
:10344000892B09F0ACC0E091CE01F091CF01A091A1
:10345000CC01B091CD01808159966C9146E09801E4
:103460000E944812892B09F09AC08E8190E08170E9
:103470009070880F991F880F991F2C8130E0217060
:103480003070220F331F982F922B8A818170982BD6
:1034900049F0913019F49093DA0122C0923009F08A
:1034A0007EC01CC0E091CE01F091CF01A091CC0173
:1034B000B091CD01808113966C9141E098010E94FA
:1034C0004812892B09F06BC089818F7009F467C09D
:1034D000843021F481E08093DA0102C01092DA0195
:1034E0002FEF2093D2012093D0012093D10120937C
:1034F000D3018FEF9FEF9093D6018093D501209356
:10350000D7012093D90181E08093D4018093E70112
:103510001092E8011092DC011092DB018AE0EDEDDF
:10352000F1E0DF011D928A95E9F71092E90110920E
:10353000EA011092EC011092EB0180ED97E00E94FD
:103540001714892B61F582E00E94CE13892B39F57F
:103550008AE290E00E948413892B09F582E390E0CF
:103560000E94AA16892BD9F480E00E94F715892BB6
:10357000B1F4E114F10441F0F701608171818281BD
:1035800043E050E00E941E2980E00E946018892BD1
:1035900031F480E00E94691420E030E002C02FEF97
:1035A0003FEFC90126960FB6F894DEBF0FBECDBF20
:1035B000CF91DF911F910F91FF90EF9008952F927F
:1035C0003F924F925F926F927F928F929F92AF92B3
:1035D000BF92CF92DF92EF92FF920F931F93DF93F0
:1035E000CF93CDB7DEB7AC970FB6F894DEBF0FBE62
:1035F000CDBF9EA38DA378A76FA32A013AA729A7C1
:103600001CA70BA7A701D8011D921C928091C4038F
:1036100090E0BE016F5F7F4F0E9454199AA389A367
:10362000892B09F0D5C1E091C003F091C103FCA33F
:10363000EBA3CF0184719070892B11F440E017C186
:10364000A980BB24CC24DD24DA2CCC24BB24AA24DE
:103650008A8190E0A0E0B0E0DC0199278827A82AC1
:10366000B92ACA2ADB2A8C8190E0A0E0B0E0A82A1F
:10367000B92ACA2ADB2A8B8190E0A0E0B0E0BA2FF9
:10368000A92F982F8827A82AB92ACA2ADB2AD2016B
:10369000AD92BD92CD92DC9213972D8130E040E047
:1036A00050E0522F4427332722278E8190E0A0E05C
:1036B000B0E0DC0199278827282B392B4A2B5B2B7C
:1036C000888590E0A0E0B0E0282B392B4A2B5B2BBB
:1036D0008F8190E0A0E0B0E0BA2FA92F982F882723
:1036E000282B392B4A2B5B2BF2012483358346830D
:1036F0005783298530E040E050E0522F442733279C
:1037000022278A8590E0A0E0B0E0DC019927882795
:10371000282B392B4A2B5B2B8C8590E0A0E0B0E066
:10372000282B392B4A2B5B2B8B8590E0A0E0B0E057
:10373000BA2FA92F982F8827282B392B4A2B5B2BA0
:10374000D20118962D933D934D935C931B972D8535
:1037500030E040E050E0522F4427332722278E8567
:1037600090E0A0E0B0E0DC0199278827282B392BD6
:103770004A2B5B2B888990E0A0E0B0E0282B392B06
:103780004A2B5B2B8F8590E0A0E0B0E0BA2FA92FE9
:10379000982F8827282B392B4A2B5B2B248735879A
:1037A000468757875601DD24B7FCD094CD2C648022
:1037B0007580868097803401992477FC9094892CB9
:1037C00020843184428453841201552437FC509460
:1037D000452C9A01552737FD5095452FCA01B9014F
:1037E0000E9453307B018C01C601B501A6019501F1
:1037F0000E945330E60EF71E081F191FC401B301C3
:10380000A40193010E945330E60EF71E081F191FF2
:10381000C201B101A20191010E945330E60EF71ED0
:10382000081F191F80E090E0A0E0B1EFE80EF91E3C
:103830000A1F1B1F91E0E91690E0F90690E00907C6
:1038400092E0190758F00E94E014ABA5BCA51D92A8
:103850001C92ECEFFFEFFAA3E9A3BAC0ABA5BCA59D
:103860008D919C91119791608D939C9340E1BBA1A8
:10387000B6FF39C0A42FB0E0FE01EA0FFB1F228182
:1038800030E0FE01EA0FFB1F918180E0282B392BED
:10389000EFA1F8A531832083FE01EA0FFB1F3381DE
:1038A00020E0FE01EA0FFB1F848190E0282B392BDA
:1038B000EFA1F8A533832283FE01EA0FFB1F3581B8
:1038C00020E0868190E0282B392BAFA1B8A5159672
:1038D0003C932E9314974A5FEBA5FCA580819181C0
:1038E0008860918380838BA19CA180789170892BC3
:1038F000C9F1A42FB0E0FE01EA0FFB1F228130E0E6
:10390000FE01EA0FFB1F918180E0282B392BEDA1EE
:10391000FEA131832083FE01EA0FFB1F338120E0EB
:10392000FE01EA0FFB1F848190E0282B392BEDA1CB
:10393000FEA133832283FE01EA0FFB1F358120E0C5
:10394000868190E0282B392BADA1BEA115963C9322
:103950002E9314974A5FEBA5FCA580819181806727
:10396000918380838BA19CA183709070892B61F1DE
:103970008E010F5F1F4F040F111DD8011396FC908D
:10398000139711968C9180FF0FC0E091BA03F091CC
:10399000BB03309749F08F2D8F736F2D67706F5F6A
:1039A0008695869586950995F801818183FF0CC0DF
:1039B000E091BC03F091BD03309731F08F2D8295DB
:1039C000869586958370099589A59AA50E943B12D4
:1039D00089A19AA1AC960FB6F894DEBF0FBECDBFF9
:1039E000CF91DF911F910F91FF90EF90DF90CF90DB
:1039F000BF90AF909F908F907F906F905F904F900F
:103A00003F902F900895DF93CF93CDB7DEB72997DE
:103A10000FB6F894DEBF0FBECDBF9E012F5F3F4FA4
:103A2000882349F0D901E3E6F2E089E001900D92A4
:103A30008150E1F708C0D901EAE5F2E089E00190A0
:103A40000D928150E1F788EB94E069E070E0AE01FF
:103A50004F5F5F4F0E94F41229960FB6F894DEBFB5
:103A60000FBECDBFCF91DF910895DF93CF9300D0EC
:103A7000CDB7DEB765E070E00E94723079836A836B
:103A800088E591E062E070E0AE014F5F5F4F0E9419
:103A9000F4120F900F90CF91DF910895DF93CF93A1
:103AA00000D0CDB7DEB765E070E00E947230798358
:103AB0006A838AE591E062E070E0AE014F5F5F4F9C
:103AC0000E94F4120F900F90CF91DF910895EF9222
:103AD000FF920F931F93DF93CF9300D000D0CDB709
:103AE000DEB77A0100E010E028EE33E040E050E07D
:103AF0000E94BB30C801B7010E945330292F3327E1
:103B00004427552729839C01552737FD5095452F7C
:103B10002A83272F382F492F552747FD5A952B8366
:103B20006C838CE591E064E070E0AE014F5F5F4F25
:103B30000E94F4120F900F900F900F90CF91DF9191
:103B40001F910F91FF90EF900895DF93CF9300D0D6
:103B5000CDB7DEB765E070E00E94723079836A838A
:103B60008AED91E062E070E0AE014F5F5F4F0E942E
:103B7000F4120F900F90CF91DF910895DF93CF93C0
:103B800000D0CDB7DEB765E070E00E947230798377
:103B90006A838EED91E062E070E0AE014F5F5F4FAF
:103BA0000E94F4120F900F90CF91DF910895DF9350
:103BB000CF930F92CDB7DEB7882311F481E003C015
:103BC000853008F084E0815089838FE491E061E0E2
:103BD00070E0AE014F5F5F4F0E94F4120F90CF91E3
:103BE000DF910895DF93CF930F92CDB7DEB719829F
:103BF000282F80FF02C080E3898321FF03C08981D1
:103C00008C60898322FF03C089818360898388E473
:103C100091E061E070E0AE014F5F5F4F0E94F412EF
:103C20000F90CF91DF9108950F931F93DF93CF9360
:103C3000CDB7DEB728970FB6F894DEBF0FBECDBF65
:103C40008C01893C910528F588EC90E0B8010E9430
:103C500072306150704079836A8386E192E062E05D
:103C600070E0AE014F5F5F4F0E94F412892B89F420
:103C700081EC9AE06CE070E04CE652E00E94F412B5
:103C8000892B39F41093C3030093C20320E030E082
:103C900002C02FEF3FEFC90128960FB6F894DEBFA0
:103CA0000FBECDBFCF91DF911F910F910895DF938C
:103CB000CF9300D000D0CDB7DEB7882349F080E2A3
:103CC000898388E28A8380E38B8388E38C8308C0BE
:103CD00083EA93EAA3EAB3EA89839A83AB83BC833A
:103CE0008EE99AE064E070E0AE014F5F5F4F0E94A2
:103CF000F4120E94E0140F900F900F900F90CF914C
:103D0000DF910895DF93CF9300D000D0CDB7DEB719
:103D1000882349F080EC898382EC8A8384EC8B834E
:103D200086EC8C8308C08BE89BE8ABE8BBE8898312
:103D30009A83AB83BC8388E99AE064E070E0AE01CB
:103D40004F5F5F4F0E94F4120E94E0140F900F909B
:103D50000F900F90CF91DF910895AF92BF92CF92C5
:103D6000DF92EF92FF920F931F93DF93CF9300D0D8
:103D700000D00F92CDB7DEB7A82EBB24C501877047
:103D80009070892B09F4BFC086E06134780708F091
:103D9000BAC080E090E00E94A22E20E030E048E42B
:103DA00053E40E94092E7B018C01CE0101960E94F2
:103DB000851289818430F1F0853020F4823009F059
:103DC000A2C006C0883041F1803109F09CC036C0E5
:103DD000C801B70120E030E040E856E40E94842F9B
:103DE0000E94762E6B01C801B70120E030E040E46C
:103DF00056E435C0C801B70120E030E040E056E4A9
:103E00000E94842F0E94762E6B01C801B70120E02A
:103E100030E040EC55E423C0C801B70120E030E0B9
:103E200040E855E40E94842F0E94762E6B01C80161
:103E3000B70120E030E040E455E411C0C801B7010B
:103E400020E030E040E055E40E94842F0E94762E6E
:103E50006B01C801B70120E030E040EC54E40E945F
:103E6000842F0E94762E862FDA82CB827C838D83EC
:103E7000A0FE17C08E010E5F1F4F84ED91E062E03F
:103E800070E0A8010E94F412892BE9F50E5F1F4F24
:103E900084E291E062E070E0A8010E94F412892BB4
:103EA00091F5A1FE17C08E010E5F1F4F88ED91E0C6
:103EB00062E070E0A8010E94F412892B21F50E5FE8
:103EC0001F4F88E291E062E070E0A8010E94F412C6
:103ED000892BC9F4A2FE1AC08E010E5F1F4F8CED14
:103EE00091E062E070E0A8010E94F412892B59F47D
:103EF0000E5F1F4F8CE291E062E070E0A8010E942B
:103F0000F412892B19F02FEF3FEF02C020E030E0D0
:103F1000C9010F900F900F900F900F90CF91DF91EC
:103F20001F910F91FF90EF90DF90CF90BF90AF90D7
:103F30000895AF92BF92CF92DF92EF92FF920F93CC
:103F40001F93DF93CF93CDB7DEB72A970FB6F894C0
:103F5000DEBF0FBECDBF8C0182E089838AEC8A83ED
:103F600083EE8B8389E08C8388E690E064E070E0E8
:103F7000AE014F5F5F4F0E94F41283EA8983B0E481
:103F8000AB2EB12CA022B12206FF06C080EC8A83A2
:103F900088EC8B8382EC02C08A838B838C83A0E8BD
:103FA000EA2EA1E0FA2EE022F122E114F10431F030
:103FB00084EC8D838CEC8E8386EC03C083EA8D8346
:103FC0008E838F8383EA888789878A8787EA9AE046
:103FD0006AE070E0AE014F5F5F4F0E94F412F3E0C1
:103FE000CF2ED12CC022D122C114D10411F080E2F5
:103FF00001C088ED898386EB9AE061E070E0AE0154
:104000004F5F5F4F0E94F41205FF02C081E001C0C4
:1040100080E00E94031DE114F104D9F010FF08C0F4
:1040200082EB89838BE88A8386EB8B838BE907C0DD
:1040300080EB898380E88A8384EB8B8380E98C839F
:1040400082EA9AE064E070E0AE014F5F5F4F0E9449
:10405000F412AE014F5F5F4F00FF2CC088EF8983E1
:1040600080EB98E061E070E00E94F41287E06AEF74
:1040700070E00E94AD1E87E00E94F21D81E00E9468
:10408000D71D84E690E00E94BE1D84EF91E00E945F
:10409000A51D69E073EE8AEC92E048EC50E00E94C6
:1040A000671D88E290E00E944E1D8AE090E00E9429
:1040B000351D08C088ED898380EB98E061E070E0F1
:1040C0000E94F41201FF02C089ED01C088ED8983CE
:1040D0008DE397E061E070E0AE014F5F5F4F0E94BB
:1040E000F41202FF02C081E001C080E00E94821E43
:1040F00004FF02C081E001C080E00E94571EC80199
:1041000088609093C1038093C0030E94E0141092D2
:10411000C403AB2819F086E08093C403EF2829F08C
:104120008091C4038A5F8093C40304711070012BD3
:1041300029F08091C403805F8093C403CD2829F0C7
:104140008091C4038C5F8093C40380E090E02A9642
:104150000FB6F894DEBF0FBECDBFCF91DF911F9198
:104160000F91FF90EF90DF90CF90BF90AF900895A8
:10417000EF92FF920F931F93DF93CF9300D000D065
:1041800000D0CDB7DEB78C01AC0143705070FA019E
:10419000EF57FD4F80818983C801E3E096958795AD
:1041A000EA95E1F783709070FC01EF57FD4F208195
:1041B0002A83D80176E0B695A7957A95E1F7A370A2
:1041C000B070FD01EF57FD4F20812B8342585D4FAA
:1041D000FA0120812C8382589D4FFC0180818D83C0
:1041E000A258BD4F8C918E8386E294E063E070E02C
:1041F0007E010894E11CF11CA7010E94F412892B96
:1042000009F052C08AE294E063E070E0AE014C5FD6
:104210005F4F0E94F412892B09F046C0D701EBE7EB
:10422000F2E083E001900D928150E1F7DE011496F7
:10423000E8E7F2E083E001900D928150E1F702FFA0
:1042400006C08981816089838C8181608C8305FFB0
:1042500006C08A8181608A838D8181608D8310FF91
:1042600006C08B8181608B838E8181608E8380E428
:1042700094E063E070E0AE014F5F5F4F0E94F41284
:10428000892B91F481E394E063E070E0AE014C5F30
:104290005F4F0E94F412892B39F41093BF030093EF
:1042A000BE0320E030E002C02FEF3FEFC9012696A9
:1042B0000FB6F894DEBF0FBECDBFCF91DF911F9137
:1042C0000F91FF90EF90089586EF9BE069ED70E00D
:1042D00040E054E028EC30E00E94B3170895EF92DC
:1042E000FF920F931F93CF93DF93582F162FE42E37
:1042F000022FF32E8EEA93E0652F0E9456118EEA6C
:1043000093E0612F0E94D811202F3F2DC901EC01AD
:1043100010E006C08EEA93E069910E94D8111F5FF9
:104320001E15C0F38EEA93E00E941B1290E08823D2
:1043300009F491E0892FDF91CF911F910F91FF90A8
:10434000EF9008952F923F924F925F926F927F92DB
:104350008F929F92AF92BF92CF92DF92EF92FF9295
:104360000F931F93DF93CF9300D000D00F92CDB760
:10437000DEB7882E6983942E3B832A830E946E2A9F
:104380005B016C01FF24EE24292C332428016624D0
:1043900077244BC08EEA93E0682D0E9456118EEA76
:1043A00093E069810E94D8118EEA93E00E941B126B
:1043B0008EEA93E0682D0E945611A1014E19510911
:1043C0004132510514F040E250E08EEA93E0682D4E
:1043D0000E942C122F2D332727FD30958A819B8137
:1043E000280F391F3D832C838EEA93E00E946011D1
:1043F000892B09F452C00115110561F00E946E2A43
:104400006A197B098C099D09641575058605970550
:1044100008F043C08EEA93E00E946911EC81FD81AF
:104420008193FD83EC83F394DFCFE91408F4B2CFDA
:1044300001151105C9F00E946E2A6A197B098C09C1
:104440009D09980140E050E06217730784079507C3
:1044500058F02F2D332727FD3095892D90E0281710
:10446000390714F4FF24FA948F2D0F900F900F90BA
:104470000F900F90CF91DF911F910F91FF90EF90D0
:10448000DF90CF90BF90AF909F908F907F906F9074
:104490005F904F903F902F9008958EEA93E00E9496
:1044A0001B12892DF0E2F91508F480E2E80EBDCF69
:1044B000089520910504309106048091070490919D
:1044C0000804281B390B2F733070C90108952091FF
:1044D0000504309106048091070490910804281780
:1044E000390719F42FEF3FEF09C0E0910704F0916D
:1044F0000804EB53FC4F8081282F30E0C901089558
:1045000020910504309106048091070490910804DD
:104510002817390719F42FEF3FEF13C0E091070474
:10452000F0910804EB53FC4F208180910704909197
:10453000080401968F739070909308048093070489
:1045400030E0C901089510920C0410920B0488EE1B
:1045500093E0A0E0B0E080930D0490930E04A0934C
:104560000F04B093100488E892E090930A048093BB
:10457000090408951F931091F8016AE070E080E04B
:1045800090E00E94D22A111111E0812F1F9108950D
:104590000F931F93DF93CF930F92CDB7DEB78C01AC
:1045A00069838091F801882369F083E0BE016F5F21
:1045B0007F4F41E050E00E94A9261816190614F416
:1045C0009C0107C081E090E0F8019383828320E0A2
:1045D00030E0C9010F90CF91DF911F910F910895A5
:1045E00083E00E9480260895CF93DF9312C082E07B
:1045F0000E940B262FEF8F3F9207C9F0E091050430
:10460000F0910604EB53FC4F8083D0930604C093D3
:104610000504C0910504D09106042196CF73D07093
:104620008091070490910804C817D90701F7DF911A
:10463000CF910895FC0180818E5F808380E86FECCC
:104640007CE042E450E00E9424260895FC01818130
:104650009081913A59F4813209F04CC080E061EFC9
:1046600071E047E050E00E94242642C0913209F0F8
:1046700041C0803239F481EF91E067E070E00E9440
:10468000682636C0823209F035C082818093F801F5
:104690008091F1019091F201A091F301B091F401A8
:1046A000805B9440A040B04019F58091F80180FDF6
:1046B00012C087E797E790930108809300082BE0EA
:1046C00088E190E00FB6F894A895809360000FBE43
:1046D000209360000DC088E10FB6F89480936000CD
:1046E000109260000FBEA895109201081092000869
:1046F00081E0089580E00895CF92DF92EF92FF92DB
:104700000F931F93CF93DF937C016B018A01C0E06D
:10471000D0E00FC0D6016D916D01D701ED91FC91F4
:104720000190F081E02DC7010995C80FD91F0150F4
:1047300010400115110571F7CE01DF91CF911F9146
:104740000F91FF90EF90DF90CF900895EF92FF923E
:104750000F931F938C01DC01ED91FC910190F0818E
:10476000E02D6DE009957C01D801ED91FC9101905F
:10477000F081E02DC8016AE009959C012E0D3F1DD6
:10478000C9011F910F91FF90EF900895CF93DF9390
:10479000EC016115710519F420E030E00FC0DB0178
:1047A0000D900020E9F71197A61BB70BE881F9815E
:1047B0000280F381E02DAD0109959C01C901DF91D3
:1047C000CF9108954F925F927F928F929F92AF9276
:1047D000BF92CF92DF92EF92FF920F931F93DF93DE
:1047E000CF93CDB7DEB7A1970FB6F894DEBF0FBE5B
:1047F000CDBF2C01742ECB01223008F42AE019A27F
:1048000031E2C32ED12CCC0EDD1E822E9924AA2497
:10481000BB24672D752FA50194010E949930790161
:104820008A01C801B701A50194010E945330472DA8
:10483000461B0894C108D1084A3014F4405D01C0F9
:10484000495CF6014083E114F1040105110521F0F2
:104850007E2C5F2DC801DDCFC201B6010E94C623A8
:10486000A1960FB6F894DEBF0FBECDBFCF91DF91FA
:104870001F910F91FF90EF90DF90CF90BF90AF907E
:104880009F908F907F905F904F900895DC0121154D
:10489000310541F4ED91FC910190F081E02D642F00
:1048A000099508950E94E2230895CF92DF92EF9236
:1048B000FF920F931F93CF93DF93EC016A017B016B
:1048C0002115310541F4E881F9810190F081E02D55
:1048D000642F09951FC02A303105D1F477FF17C026
:1048E000E881F9810190F081E02D6DE209958C015C
:1048F00044275527BA014C195D096E097F09CE017D
:104900002AE00E94E2239801280F391F04C02AE000
:104910000E94E2239C01C901DF91CF911F910F9169
:10492000FF90EF90DF90CF900895EF92FF920F935A
:104930001F937B019A010027F7FC0095102FB80107
:10494000A7010E9455241F910F91FF90EF900895A9
:10495000CF92DF92EF92FF920F931F936C017B0136
:104960009A010027F7FC0095102FB801A7010E94BB
:1049700055248C01C6010E94A623080F191FC801E7
:104980001F910F91FF90EF90DF90CF9008950E94BC
:10499000C62308957F928F929F92AF92BF92CF923B
:1049A000DF92EF92FF920F931F93CF93DF934C010F
:1049B0007A018B01722ECB01BA01A80197010E94E6
:1049C0003830882321F0C40164EB71E021C0C0E0DD
:1049D000D0E057016801E894D7F8C601B5012FEF80
:1049E0003FEF4FE75FE70E943830882351F4C6015C
:1049F000B5012FEF3FEF4FE75FE70E94052E181636
:104A000014F0C1E0D0E0219739F0C40168EB71E007
:104A10000E94C623EC0193C0C801B7012FEF3FEFFE
:104A20004FE75FE40E94792F181654F0C801B701D0
:104A30002FEF3FEF4FE75FEC0E94052E882324F411
:104A4000C4016CEB71E0E4CFC801B70120E030E0B5
:104A500040E050E00E94052E87FD03C0C0E0D0E09A
:104A60000EC0D401ED91FC910190F081E02DC401C4
:104A70006DE20995EC0117FB109517F9109520E0F0
:104A800030E040E05FE3DD240BC0CA01B90120E063
:104A900030E040E251E40E94092E9B01AC01D39426
:104AA000D71498F3C801B7010E943F2D5B016C0138
:104AB0000E94762E7B018C01C401B801A7012AE077
:104AC00030E00E944624C80FD91F772039F0C40176
:104AD00060EC71E00E94C623C80FD91FC801B7015E
:104AE0000E94A22E9B01AC01C601B5010E943E2D81
:104AF00024C020E030E040E251E40E94842F7B019A
:104B00008C010E94712E5B016C01CC24B7FCC09417
:104B1000DC2CC401B601A5012AE030E00E94552436
:104B2000C80FD91FC601B5010E94A42E9B01AC017C
:104B3000C801B7010E943E2D7A947720D1F6CE01AC
:104B4000DF91CF911F910F91FF90EF90DF90CF9069
:104B5000BF90AF909F908F907F9008950E94CA243D
:104B60000895EF92FF920F931F937C010E94CA2435
:104B70008C01C7010E94A623080F191FC8011F91AD
:104B80000F91FF90EF900895EF92FF920F931F9374
:104B90007C010E94C6238C01C7010E94A623080F36
:104BA000191FC8011F910F91FF90EF900895282FB2
:104BB000809119048823C1F057FF1AC015C02898A6
:104BC000909318048091F1008193E217F307B9F7ED
:104BD0004115510539F08091F200882319F48BE6D4
:104BE0008093E800AFBF02C04FEF5FEFCA010895A6
:104BF000AFB7F89427702093E9008091F200282F36
:104C000030E0241735070CF4A901FB019B01240FA8
:104C1000311D94E6DACFDF93CF930F92CDB7DEB795
:104C2000BE016F5F7F4F41E050E00E94D7250197A2
:104C300019F02FEF3FEF03C08981282F30E0C90121
:104C40000F90CF91DF910895FF920F931F93F82E4D
:104C5000142F052F40911C0450911D04212F302F3B
:104C6000C901DC01FB016EEF29C0F7FE02C094917F
:104C700001C0908120911A0430911B04241735073C
:104C8000ACF48091E8008570E1F38091E80082FF48
:104C900003C02FEF3FEF17C09093F100C9010196B9
:104CA0008F739070892B11F46093E8002F5F3F4F52
:104CB00030931B0420931A04119731961097A9F68C
:104CC000812F902F9C01C9011F910F91FF90089592
:104CD0009C018091E80082FFFCCFF901260F311D75
:104CE00003C08091F1008193E217F307D1F7289870
:104CF00084E6809318048BEF8093E800CB0108953D
:104D00008093E9008091F200882319F08AE3809370
:104D1000E800089508951092190481E08093D70067
:104D200080EA8093D80082E189BD09B400FEFDCFFE
:104D300061E070E080E090E00E94D22A80E98093F8
:104D4000D8008CE08093E2001092E000559A209AFF
:104D500008955F926F927F928F929F92AF92BF92CF
:104D6000CF92DF92EF92FF920F931F93CF93DF9337
:104D7000E82E842E752E80911904882371F18B0101
:104D8000242F352FC901EC017AEFF72E67E0962E1C
:104D90009E2050E4552E8E2D90E040E2A42EB12CA2
:104DA000A822B9223AE3632E20E4C22ED12CC822D5
:104DB000D92258C09FB7F8949092E9008091E800FA
:104DC00085FD02C020E004C08091F200252D281B43
:104DD0009FBF222361F4FA9419F42FEF3FEF4DC0E7
:104DE00061E070E080E090E00E94D22A3BC0822F18
:104DF00090E0C817D9070CF42C2FC21BD1094FB76C
:104E0000F8949092E900A114B10421F406C0109224
:104E1000F10021502223D9F719C0E7FC03C0F801A3
:104E2000922F10C0C801322F06C0FC010196E491F8
:104E3000E093F10031503323C1F706C08191809394
:104E4000F10091509923D1F7020F111D8091E800D4
:104E500085FF05C0209729F4C114D10411F0609298
:104E6000E8004FBF209709F0A5CF5D9884E68093B6
:104E70001704282D372DC9019C01C901DF91CF915D
:104E80001F910F91FF90EF90DF90CF90BF90AF9068
:104E90009F908F907F906F905F9008951F920F92D8
:104EA0000FB60F9211242F933F934F935F936F93FD
:104EB0007F938F939F93AF93BF93EF93FF938091D3
:104EC000E1001092E100982F83FF0FC01092E900DB
:104ED00081E08093EB001092EC0082E38093ED0080
:104EE0001092190488E08093F00092FF34C083E0B0
:104EF0008093E9008091F200882319F08AE380937F
:104F0000E8008FB7F89492E09093E9009091F20056
:104F10008FBF992321F089E094E00E94F4228091D0
:104F20001704882351F0809117048150809317044F
:104F300080911704882309F45D9A809118048823CE
:104F400051F08091180481508093180480911804C6
:104F5000882309F4289AFF91EF91BF91AF919F9117
:104F60008F917F916F915F914F913F912F910F9012
:104F70000FBE0F901F9018950F931F93DF93CF9341
:104F80000F92CDB7DEB719828E010F5F1F4FC80198
:104F90000E941A23C8010E94312D898190E00F9050
:104FA000CF91DF911F910F9108951F920F920FB62D
:104FB0000F921124EF92FF921F932F933F934F93E1
:104FC0005F936F937F938F939F93AF93BF93EF9371
:104FD000FF93DF93CF93CDB7DEB76197DEBFCDBF31
:104FE0001092E9008091E80083FF0FC1FE01319625
:104FF0009E01275F3F4F03C08091F1008193E2172C
:10500000F307D1F7289884E68093180482EF809301
:10501000E800998197FF05C08091E80080FFFCCFF0
:1050200003C08EEF8093E800292F30E0C90180761D
:105030009070892B09F0C2C08A81882329F41092CC
:10504000F1001092F100D6C0813009F4D3C0833052
:1050500009F4D0C0853049F48091E80080FFFCCF8E
:105060008B8180688093E300C5C0863009F07CC0E6
:105070001C81EF80F8841230C1F51092E900109283
:105080001B0410921A0410921D0410921C040E941A
:10509000BC2799E0FE013996DF01292F1D922A9540
:1050A000E9F799871A8791E09E8790E8988B9AEFA5
:1050B000998B20911A0430911B04275F3F4F3C8746
:1050C0002B878D871092E90010921B0410921A040E
:1050D000F0921D04E0921C0480E0BF0149E050E022
:1050E0000E9424260E94BC2785C01092E9001092DD
:1050F0001B0410921A04F0921D04E0921C04123258
:1051000041F482E290E00E94292D892B09F476C0B7
:1051100071C0113079F488E0E816F10419F481E0E7
:1051200080931E0480911E04882309F06BC0EFE475
:10513000FDE013C0133009F061C08B81882319F49E
:10514000E1E1FDE00AC0823019F4E5E1FDE005C0CF
:10515000813009F053C0E7E3FDE0449180E8BF01EE
:1051600050E00E94242646C0873009F447C08830AA
:1051700021F481E08093F1003DC08930D9F523709E
:105180003070232BD9F5E4E7FDE091E031E026E330
:105190009093E9003093EB0084918093EC0020938E
:1051A000ED009F5F3196953099F78EE78093EA0086
:1051B0001092EA008B81809319041CC08F8198851E
:1051C0001092E90010921B0410921A0490931D048F
:1051D00080931C048D81882329F4CE0101960E94BE
:1051E000262306C0823051F4CE0101960E94FA2B8C
:1051F000882321F08EEF8093E80007C081E280933E
:10520000EB0003C0E1E6FDE0A8CF6196DEBFCDBFB5
:10521000CF91DF91FF91EF91BF91AF919F918F91CE
:105220007F916F915F914F913F912F911F91FF90CF
:10523000EF900F900FBE0F901F9018958430F0F5EF
:10524000E82FF0E0EE0FFF1FE05EFB4F71836083FD
:10525000813079F0813028F08230B9F0833071F5F7
:1052600021C0809169008C7F842B80936900E89A2B
:10527000089580916900440F551F440F551F837F87
:10528000842B80936900E99A08958091690024E055
:10529000440F551F2A95E1F78F7C842B809369007A
:1052A000EA9A08958091690096E0440F551F9A95F7
:1052B000E1F78F73842B80936900EB9A08951F9216
:1052C0000F920FB60F9211242F933F934F935F933A
:1052D0006F937F938F939F93AF93BF93EF93FF93BE
:1052E0008091200490912104892B29F0E0912004E1
:1052F000F09121040995FF91EF91BF91AF919F919A
:105300008F917F916F915F914F913F912F910F906E
:105310000FBE0F901F9018951F920F920FB60F920D
:1053200011242F933F934F935F936F937F938F93AA
:105330009F93AF93BF93EF93FF938091220490913B
:105340002304892B29F0E0912204F091230409958C
:10535000FF91EF91BF91AF919F918F917F916F914D
:105360005F914F913F912F910F900FBE0F901F9023
:1053700018951F920F920FB60F9211242F933F93FF
:105380004F935F936F937F938F939F93AF93BF934D
:10539000EF93FF938091240490912504892B29F0A9
:1053A000E0912404F09125040995FF91EF91BF91BC
:1053B000AF919F918F917F916F915F914F913F91AD
:1053C0002F910F900FBE0F901F9018951F920F9264
:1053D0000FB60F9211242F933F934F935F936F93C8
:1053E0007F938F939F93AF93BF93EF93FF9380919E
:1053F000260490912704892B29F0E0912604F0914E
:1054000027040995FF91EF91BF91AF919F918F91E3
:105410007F916F915F914F913F912F910F900FBEB0
:105420000F901F901895CF93DF930E947C2A8FE1F5
:1054300094E00E948B260E94EE0DC0E0D0E00E9416
:10544000120B2097E1F30E940000F9CF1F920F92F8
:105450000FB60F9211242F933F938F939F93AF9387
:10546000BF9380912C0490912D04A0912E04B091B3
:105470002F04309130040196A11DB11D232F2D5F03
:105480002D3720F02D570196A11DB11D209330041A
:1054900080932C0490932D04A0932E04B0932F049A
:1054A0008091280490912904A0912A04B0912B04A2
:1054B0000196A11DB11D8093280490932904A09307
:1054C0002A04B0932B04BF91AF919F918F913F918C
:1054D0002F910F900FBE0F901F9018958FB7F894D3
:1054E00020912C0430912D0440912E0450912F04D2
:1054F0008FBFB901CA010895789484B5826084BDD4
:1055000084B5816084BD85B5826085BD85B58160C7
:1055100085BDEEE6F0E0808181608083E1E8F0E027
:105520001082808182608083808181608083E0E856
:10553000F0E0808181608083E1E9F0E08081826039
:105540008083808181608083E0E9F0E080818160F8
:105550008083E1ECF0E080818460808380818260E0
:105560008083808181608083E3ECF0E080818160D2
:105570008083E0ECF0E0808182608083E2ECF0E008
:10558000808181608083EAE7F0E0808184608083AD
:105590008081826080838081816080838081806857
:1055A00080830895EF92FF920F931F93CF93DF9321
:1055B0007B018C013FB7F8948091280490912904D5
:1055C000A0912A04B0912B0426B5A89B05C02F3FBB
:1055D00019F00196A11DB11D3FBFBA2FA92F982F19
:1055E0008827820F911DA11DB11D52E0880F991FC0
:1055F000AA1FBB1F5A95D1F7EC0130C00E943D2D68
:105600003FB7F8948091280490912904A0912A042E
:10561000B0912B0426B5A89B05C02F3F19F0019629
:10562000A11DB11D3FBFBA2FA92F982F8827820F28
:10563000911DA11DB11D32E0880F991FAA1FBB1F2C
:105640003A95D1F78C1B9D0B885E9340B8F2089475
:10565000E108F10801091109C851DC4FE114F10416
:105660000105110559F6DF91CF911F910F91FF9020
:10567000EF900895CF93DF93482F50E0CA018054F4
:10568000924FFC0134914E55524FFA018491882378
:1056900069F190E0880F991FFC01E858F24FA5913D
:1056A000B491FC01EA57F24FC591D491662351F4AD
:1056B0002FB7F8948C91932F909589238C938881A0
:1056C00089230BC0623061F42FB7F8948C91932F2B
:1056D000909589238C938881832B88832FBF06C064
:1056E0009FB7F8948C91832B8C939FBFDF91CF91C0
:1056F0000895883071F1893068F4823031F1833057
:1057000020F4813009F042C01DC0833089F084301C
:10571000E9F512C08B3059F18C3028F48930E9F06A
:105720008A30A1F51EC08C3031F18E3079F529C058
:10573000809180008F7703C0809180008F7D80935F
:105740008000089584B58F7702C084B58F7D84BDB5
:105750000895809190008F7707C0809190008F7D91
:1057600003C080919000877F80939000089580917E
:10577000C0008F7703C08091C0008F7D8093C000F0
:1057800008958091C200877F8093C2000895FF92A0
:105790000F931F93F62E482F50E0CA018252924F6A
:1057A000FC012491CA018054924FFC0114914E5582
:1057B000524FFA0104910023C9F0222319F0822FDD
:1057C0000E94792BE02FF0E0EE0FFF1FEA57F24F17
:1057D000A591B4919FB7F894FF2021F48C91109576
:1057E000812302C08C91812B8C939FBF1F910F91BD
:1057F000FF900895FC0191818081813A31F49130CC
:1058000089F080E0933089F40DC0813269F49B30D7
:1058100021F482818093F90105C09A3029F48281B4
:105820008093FA0181E0089580E00895EF92FF925D
:105830000F931F938C01E62EDC01ED91FC91048007
:10584000F581E02D0995F82ED801ED91FC910680A7
:10585000F781E02DC8016E2D09958F2D90E01F91E5
:105860000F91FF90EF90089510923104109235043B
:10587000109234048AE992E09093330480933204C6
:105880000895EF92FF920F931F93DF93CF930F92A0
:10589000CDB7DEB789838B017A0184E0BE016F5FEB
:1058A0007F4F41E050E00E94A92684E4B801A7019F
:1058B0000E94A9260F90CF91DF911F910F91FF9029
:1058C000EF90089582E048E050E00E94412C089556
:1058D000FC011682178210861186128613861482A6
:1058E0003496BF010E94622C0895DC01683810F0E4
:1058F000685829C0E62FF0E067FF13C0E058F04079
:1059000081E090E002C0880F991FEA95E2F7809548
:1059100014962C911497282314962C93149760E0D6
:1059200012C0E858F14F6491662319F420E030E08A
:105930001DC067FF08C014968C9114978D7F149634
:105940008C9314976F77FD0190E0662321F0868198
:10595000861709F416829F5F31969630B1F7CD0114
:105960001496BD010E94622C21E030E0C901089527
:10597000CF93DF93DC01683810F0685825C0E62F1C
:10598000F0E067FF12C0E058F04081E090E002C014
:10599000880F991FEA95E2F714962C911497282BFB
:1059A00014962C93149760E00FC0E858F14F64915F
:1059B0006623D9F167FF08C014968C911497826012
:1059C00014968C9314976F7716968C91169786176A
:1059D000A9F117968C911797861781F118968C91DB
:1059E0001897861759F119968C911997861731F1E6
:1059F0001A968C911A97861709F11B968C911B9712
:105A00008617E1F0ED01E0E0F0E09E2F8E81882323
:105A100021F4EA0FFB1F668306C09F5F3196219633
:105A2000E630F10591F7963049F481E090E0139665
:105A30009C938E93129720E030E007C0CD0114961E
:105A4000BD010E94622C21E030E0C901DF91CF91BD
:105A5000089580E86AEF7DE045E650E00E94242644
:105A60000895FC0180818F5F808380E86FE57EE090
:105A700049E150E00E942426089508955058BB271C
:105A8000AA270ED0FCC1EDD130F0F2D120F031F4D4
:105A90009F3F11F41EF4BDC10EF4E095E7FBB3C1C6
:105AA000E92FFED180F3BA176207730784079507C1
:105AB00018F071F49EF516C20EF4E0950B2EBA2F75
:105AC000A02D0B01B90190010C01CA01A001112404
:105AD000FF27591B99F0593F50F4503E68F11A16B0
